:020000040000FA
:100000000C945D000C9485000C9485000C94850084
:100010000C9485000C9485000C9485000C9485004C
:100020000C9485000C9485000C9485000C9485003C
:100030000C9485000C9485000C9485000C9485002C
:100040000C947D010C9485000C9485000C94850023
:100050000C9485000C9485000C9485000C9485000C
:100060000C9485000C94850000000008000201003B
:100070000003040700000000000000000000000072
:10008000250028002B0000000000240027002A0083
:10009000040404040404040402020202020203032E
:1000A0000303030301020408102040800102040836
:1000B0001020010204081020F70211241FBECFEF08
:1000C000D8E0DEBFCDBF11E0A0E0B1E0EEEDF8E09A
:1000D00002C005900D92A435B107D9F721E0A4E53F
:1000E000B1E001C01D92A53BB207E1F710E0CDE5FC
:1000F000D0E004C02197FE010E946704CC35D107EF
:10010000C9F70E94E6010C946D040C94000090E085
:10011000FC01E859FF4F2491FC01EC55FF4F34914D
:10012000FC01E057FF4FE491EE23C9F0222339F0A0
:10013000233001F1A8F4213019F1223029F1F0E047
:10014000EE0FFF1FE458FF4FA591B4918FB7F894BD
:10015000EC91611126C030953E233C938FBF0895EA
:100160002730A9F02830C9F0243049F78091800069
:100170008F7D03C0809180008F7780938000DFCFD8
:1001800084B58F7784BDDBCF84B58F7DFBCF809125
:10019000B0008F778093B000D2CF8091B0008F7D78
:1001A000F9CF3E2BDACF3FB7F89480915901909167
:1001B0005A01A0915B01B0915C0126B5A89B05C0D6
:1001C0002F3F19F00196A11DB11D3FBFBA2FA92FD6
:1001D000982F8827BC01CD01620F711D811D911DD3
:1001E00042E0660F771F881F991F4A95D1F708953F
:1001F000CF92DF92EF92FF920F931F93CF93DF93F3
:1002000000D0CDB7DEB769834A83880F991F00916C
:10021000B3011091B401000F111FEDE5F1E09F0152
:100220002D5531402017310714F41192F8CF298150
:10023000FC01E35AFE4F21838A81808360E0809134
:10024000B1010E9487001016110604F50150110932
:10025000F801E35AFE4FE080D090AF01C090AD01AD
:1002600088E0F82E6E2D661F6627661F8C2D0E9473
:100270008700EE0C61E08D2D0E94870060E08D2DDF
:100280000E948700FA94F110EDCFDDCF61E08091FC
:10029000B1010F900F90DF91CF911F910F91FF90BF
:1002A000EF90DF90CF900C948700EF92FF921F9316
:1002B000CF93DF932091B3013091B401821793075C
:1002C000B4F4EC0123E0880F991F2A95E1F79C0113
:1002D00023593E4F790111E0F70111927F0140E06F
:1002E000612FCE010E94F8001F5F1930A9F7DF913E
:1002F000CF911F91FF90EF9008951F920F920FB62C
:100300000F9211242F933F938F939F93AF93BF939B
:100310008091550190915601A0915701B0915801DB
:100320003091540123E0230F2D3758F50196A11D7C
:10033000B11D209354018093550190935601A093D1
:100340005701B09358018091590190915A01A091A1
:100350005B01B0915C010196A11DB11D8093590113
:1003600090935A01A0935B01B0935C01BF91AF9150
:100370009F918F913F912F910F900FBE0F901F90E3
:10038000189526E8230F0296A11DB11DD2CF90E04B
:10039000FC01EC55FF4F249180579F4FFC01849145
:1003A000882399F090E0880F991FFC01EA57FF4FCE
:1003B000A591B491FC01E458FF4F859194918FB7BA
:1003C000F894EC91E22BEC938FBF0895789484B568
:1003D000826084BD84B5816084BD85B5826085BD41
:1003E00085B5816085BD80916E00816080936E00CF
:1003F00010928100809181008260809381008091C1
:100400008100816080938100809180008160809371
:1004100080008091B10084608093B1008091B00031
:1004200081608093B00080917A00846080937A002C
:1004300080917A00826080937A0080917A00816056
:1004400080937A0080917A00806880937A0010927D
:10045000C1008091B3019091B4011816190634F4CB
:1004600041E06CE090E080E00E94F8008091B301F0
:100470009091B401029734F041E06CE081E090E0AB
:100480000E94F8008091B3019091B40118161906EA
:1004900034F44FE06AE090E080E00E94F800809140
:1004A000B3019091B401029734F04FE06AE081E02B
:1004B00090E00E94F80090E080E00E94550181E009
:1004C00090E00E94550139E0832E912CA12CB12C93
:1004D00040E0242E40E0342E09E010E00E94AC03FE
:1004E000A50194010E9404047B0123E0EE0CFF1C93
:1004F0002A95E1F7D0E0C0E08091B3019091B4017A
:100500001816190684F4FE01EE0DFF1DEC5FFE4F78
:100510004081FE01E35AFE4F408B6C2F6F5F90E0ED
:1005200080E00E94F8002196C830D10529F70E948A
:10053000AC03A50194010E9404047B0193E0EE0C3E
:10054000FF1C9A95E1F7D0E0C0E08091B301909153
:10055000B401029784F0FE01EE0DFF1DEC5FFE4F2B
:100560004081FE01E35AFE4F408F6C2F6F5F81E0A8
:1005700090E00E94F8002196C830D10531F70E9422
:10058000D3002B013C0184EFC82EDD24D394E12C51
:10059000F12C0E94D3006419750986099709683EF9
:1005A000734081059105A8F321E0C21AD108E10842
:1005B000F10888EE480E83E0581E611C711CC114BE
:1005C000D104E104F10429F781E090E00E94550193
:1005D00090E080E00E9455010150110909F07ECFA2
:1005E0002114310409F478CF0E94000075CFCF9315
:1005F000DF93CBE0D0E0D093AE01C093AD018DE0AE
:1006000090E09093B0018093AF018AE090E09093E6
:10061000B2018093B10182E090E09093B4018093A5
:10062000B3018BE00E94C7018091AF010E94C70116
:100630008091B1010E94C70161E08091B1010E94E7
:100640008700D093AE01C093AD01EDE6F1E08DEAF5
:1006500091E011928E179F07E1F7D0E0C0E0809102
:10066000B3019091B401C817D9073CF540E06FE0A1
:10067000CE010E94F8008091B3019091B401C81797
:10068000D9072CF447E06BE0CE010E94F80040E06F
:1006900069E0CE010E94F800CE010E9455018091D0
:1006A000B3019091B401C817D9072CF440E06CE075
:1006B000CE010E94F8002196D2CFDF91CF9108950C
:1006C0008F929F92AF92BF92CF92DF92EF92FF9262
:1006D000CF93DF93EC01688179818A819B816115D9
:1006E00071058105910521F464E279ED8BE597E0D0
:1006F0002DE133EF41E050E00E94040449015A012A
:100700009B01AC01A7EAB1E40E9423046B017C01C8
:10071000ACEEB4EFA50194010E943104C60ED71EC1
:10072000E81EF91EF7FE06C081E0C81AD108E108EC
:1007300080E8F80AC882D982EA82FB82C701B60142
:100740009F77DF91CF91FF90EF90DF90CF90BF9098
:10075000AF909F908F9008958F929F92AF92BF928B
:10076000CF92DF92EF92FF926091000170910101B0
:100770008091020190910301611571058105910538
:1007800021F464E279ED8BE597E02DE133EF41E070
:1007900050E00E94040449015A019B01AC01A7EA00
:1007A000B1E40E9423046B017C01ACEEB4EFA5011F
:1007B00094010E943104C60ED71EE81EF91EF7FEF2
:1007C00006C081E0C81AD108E10880E8F80AC092A2
:1007D0000001D0920101E0920201F0920301C701F1
:1007E000B6019F77FF90EF90DF90CF90BF90AF90D2
:1007F0009F908F9008956093000170930101809302
:100800000201909303010895052E97FB1EF40094B6
:100810000E941B0457FD07D00E94360407FC03D03A
:100820004EF40C941B0450954095309521953F4F04
:100830004F4F5F4F089590958095709561957F4FCC
:100840008F4F9F4F08950E945804A59F900DB49F0D
:10085000900DA49F800D911D11240895B7FF0C9455
:1008600023040E942304821B930B0895A1E21A2EF5
:10087000AA1BBB1BFD010DC0AA1FBB1FEE1FFF1F44
:10088000A217B307E407F50720F0A21BB30BE40B94
:10089000F50B661F771F881F991F1A9469F76095DB
:1008A0007095809590959B01AC01BD01CF01089595
:1008B000A29FB001B39FC001A39F700D811D1124A1
:1008C000911DB29F700D811D1124911D0895EE0F91
:1008D000FF1F0590F491E02D0994F894FFCF0100DB
:1008E00000003C4242424242423C1C3C6CCC0C0C5C
:1008F0000C0C3E7EC6860C183F7F7EC68618188676
:10090000C67E183060CCFFFF0C0C7E4040407E025B
:10091000027E1E2040407C42423CFFFF060C7E309F
:1009200060C07E42427E7E42427E7E42427E020223
:02093000027E45
:107E0000112484B714BE81FFF0D085E080938100F7
:107E100082E08093C00088E18093C10086E0809377
:107E2000C20080E18093C4008EE0C9D0259A86E02C
:107E300020E33CEF91E0309385002093840096BBD3
:107E4000B09BFECF1D9AA8958150A9F7CC24DD24C4
:107E500088248394B5E0AB2EA1E19A2EF3E0BF2EE7
:107E6000A2D0813461F49FD0082FAFD0023811F036
:107E7000013811F484E001C083E08DD089C08234E0
:107E800011F484E103C0853419F485E0A6D080C0E4
:107E9000853579F488D0E82EFF2485D0082F10E0AE
:107EA000102F00270E291F29000F111F8ED06801E7
:107EB0006FC0863521F484E090D080E0DECF843638
:107EC00009F040C070D06FD0082F6DD080E0C81688
:107ED00080E7D80618F4F601B7BEE895C0E0D1E017
:107EE00062D089930C17E1F7F0E0CF16F0E7DF06D8
:107EF00018F0F601B7BEE89568D007B600FCFDCFD4
:107F0000A601A0E0B1E02C9130E011968C91119780
:107F100090E0982F8827822B932B1296FA010C0160
:107F200087BEE89511244E5F5F4FF1E0A038BF0790
:107F300051F7F601A7BEE89507B600FCFDCF97BE46
:107F4000E89526C08437B1F42ED02DD0F82E2BD052
:107F50003CD0F601EF2C8F010F5F1F4F84911BD097
:107F6000EA94F801C1F70894C11CD11CFA94CF0C13
:107F7000D11C0EC0853739F428D08EE10CD085E9AC
:107F80000AD08FE07ACF813511F488E018D01DD067
:107F900080E101D065CF982F8091C00085FFFCCF94
:107FA0009093C60008958091C00087FFFCCF809118
:107FB000C00084FD01C0A8958091C6000895E0E648
:107FC000F0E098E1908380830895EDDF803219F02E
:107FD00088E0F5DFFFCF84E1DECF1F93182FE3DFCA
:107FE0001150E9F7F2DF1F91089580E0E8DFEE27F6
:047FF000FF270994CA
:027FFE00040479
:00000001FF
