:020000040000FA
:100000000C94F3020C941B030C941B030C941B0321
:100010000C941B030C941B030C941B030C941B03E8
:100020000C941B030C941B030C941B030C941B03D8
:100030000C941B030C941B030C941B030C941B03C8
:100040000C9401210C941B030C941B030C941B03B4
:100050000C941B030C941B030C941B030C941B03A8
:100060000C941B030C941B03000000080002010009
:10007000000304070000000000000000460200002A
:1000800000FF0800053E5B4F5B3E053E6B4F6B3E3D
:10009000051C3E7C3E1C05183C7E3C18051C577D0B
:1000A000571C051C5E7F5E1C0400183C1805FFE70A
:1000B000C3E7FF040018241805FFE7DBE7FF05305E
:1000C000483A060E05262979292605407F050507A9
:1000D00005407F05253F055A3CE73C5A057F3E1CFD
:1000E0001C0805081C1C3E7F0514227F221405FFF6
:1000F000FFFFFFFF05F0F0F0F0F003FFFFFF05004A
:100100000000FFFF050F0F0F0F0F0508047E040806
:100110000510207E20100508082A1C0805081C2A46
:10012000080805AA005500AA05AA55AA55AA05302F
:10013000383E383005060E3E0E06020000015F0311
:1001400007000705147F147F1405444AFF4A32054F
:1001500063130864630536494936480107033E4185
:10016000410341413E05082A1C2A080508083E08AB
:10017000080260E0040808080802606005601008D2
:100180000403053E5149453E0304027F0571494978
:100190004946054149494936050F0808087F054F7A
:1001A00049494931053E4949493005030101017F6B
:1001B00005364949493605064949493E026C6C02F3
:1001C0006CEC0308142204141414140322140805FC
:1001D0000159090906053E415D594E057E09090987
:1001E0007E057F49494936053E41414141057F41F0
:1001F00041413E057F49494941057F0909090105FA
:100200003E41414979057F0808087F03417F410548
:10021000304141413F057F08142241057F40404065
:1002200040057F020C027F057F0408107F053E41D8
:1002300041413E057F09090906053E4141617E05B0
:100240007F091929460546494949310501017F01C0
:1002500001053F4040403F051F2040201F053F4013
:1002600038403F056314081463050304780403054C
:100270006151494543037F41410503040810600370
:1002800041417F0504020102040480808080030153
:100290000204043844447C047F4444380438444411
:1002A00044043844447F043854545804047E0501FF
:1002B0000418A4A47C047F040478017D0384857C55
:1002C000047F102844017F057C04780478047C04B2
:1002D0000478043844443804FC24241804182424E2
:1002E000FC047C040408045854543403047F0404BC
:1002F0003C40407C041C20407C053C4030403C0499
:100300006C10106C041CA0A07C046454544C0408B1
:10031000364141017F0441413608040201020105D2
:100320007F4141417F053E5555554105384444388C
:1003300044057C2A2A3E14057E0202060605027E3A
:10034000027E02056355494163053844443C040577
:10035000407E201E200506027E0202086313086408
:1003600063006060052A2A2A2A2A03514A4403446A
:100370004A51050000FF010303E080FF05361236F5
:10038000243603020502021818021010053040FF3F
:100390000101041F01011E000000000901017F018D
:1003A0007F020C027F0000000000000100017D04BC
:1003B00018247E2404447E454105221C141C220579
:1003C000012A7C2A010177044E55553903020002A7
:1003D000077E81BDA5A5817E0326292F0508142A45
:1003E0001422040808081803080808077E81BD9530
:1003F000A9817E0501010101010302050203242EEA
:1004000024031915120315150A02020104F82040ED
:10041000780506097F017F021818040080A0C00338
:10042000121F10032629260522142A140808402F1B
:100430001008041E117C08402F10080462554C0956
:1004400015553F1008041E117C053048484D4005E5
:100450007815161478057814161578057A1514157C
:100460007A05781615167905781514157805781417
:10047000151478077E09097F494941059EA161212C
:1004800021057C54554644057C54564544057E550B
:10049000544546057C5554454403457E4403447EFB
:1004A0004503467D4603457C4505087F49413E0599
:1004B0007C0A11227D0538444546380538444645B6
:1004C00038053A4544453A053846454639053845E4
:1004D000444538052214081422057C625A463E051C
:1004E0003C4041423C053C4042413C053C4241428B
:1004F0003C053C4140413C0502047A0502043F12A0
:10050000120C057E49494E30043845467C04384477
:10051000467D043846457E043A45467D04384544C8
:100520007D04304A4D7A0720545438545458049C62
:10053000A262220438555658043854565904385685
:10054000555A043855545902017A027A0103027946
:10055000020302780204304B4B3C047A090A71040E
:1005600030494A300430484A3104304A4932043272
:10057000494A3104394444390508082A080804382E
:10058000544C3804384142780438404279043842A7
:10059000417A043A40407A0418A0A27904FC282841
:1005A00010041AA0A07A00000000250028002B00EB
:1005B00000000000240027002A00040404040404AE
:1005C0000404020202020202030303030303010202
:1005D00004081020408001020408102001020408D1
:1005E00010208B23A62311241FBECFEFD8E0DEBF3F
:1005F000CDBF11E0A0E0B1E0E4EAFEE402C0059066
:100600000D92A632B107D9F721E0A6E2B1E001C010
:100610001D92AB36B207E1F712E0C2EFD2E004C0A0
:100620002197FE010E944625C13FD107C9F70E94CC
:100630004B210C9445270C940000829590E09C017E
:1006400035952795359527952373880F991F880F22
:10065000991F8C7C282B30E0C9019595879585756D
:10066000220F331F2A7A822B089590E0FC01E25377
:10067000FA4F249186549A4FFC018491882399F073
:1006800090E0880F991FFC01E055FA4FA591B491B5
:10069000FC01EA55FA4F859194918FB7F894EC914B
:1006A000E22BEC938FBF0895CF93DF93262F2695EF
:1006B000382F70E0680F791FFC018E2F831B821783
:1006C00050F4819161507109DB019C91EF012197F8
:1006D00098838C93F2CFDF91CF910895482FFC013E
:1006E0008E2F841B8617E0F4219130E0C901959587
:1006F00087958575220F331F2A7A822B90E09C0103
:1007000035952795359527952373880F991F880F61
:10071000991F8C7C822B8295DF0111978C93E0CFFF
:10072000089590E0FC01E859FF4F2491FC01E25349
:10073000FA4F3491FC01E654FA4FE491EE23C9F0EC
:10074000222339F0233001F1A8F4213019F12230AD
:1007500029F1F0E0EE0FFF1FEA55FA4FA591B49191
:100760008FB7F894EC91611126C030953E233C93ED
:100770008FBF08952730A9F02830C9F0243049F7F9
:10078000809180008F7D03C0809180008F7780935F
:100790008000DFCF84B58F7784BDDBCF84B58F7DBC
:1007A000FBCF8091B0008F778093B000D2CF809143
:1007B000B0008F7DF9CF3E2BDACF3FB7F894809110
:1007C000390190913A01A0913B01B0913C0126B5CD
:1007D000A89B05C02F3F19F00196A11DB11D3FBF79
:1007E000BA2FA92F982F8827BC01CD01620F711D48
:1007F000811D911D42E0660F771F881F991F4A9542
:10080000D1F70895CF92DF92EF92FF921F93CF938B
:10081000DF93DC0158961C92589788E059968C9388
:1008200059975A961C925A975C961C921E925B9707
:100830008FEF90E05E969C938E935D9790961C92BE
:100840001E925F9756968D919C915797009709F449
:1008500078C0FC012491263409F031C03196E4912E
:10086000E13009F453C022E030E0E23021F5FC0130
:10087000329624913196E49130E0322F22272E0FC8
:10088000311D5C963C932E935B97FC01349624912A
:100890003196E49130E0322F22272E0F311D5E96E3
:1008A0003C932E935D97FC013696E4915996EC9318
:1008B000599727E030E090963C932E935F975F9690
:1008C000CD90DC909097F12CE12C5B962D913C9192
:1008D0005C975D96CD91DC915E9710E0C217D307CF
:1008E00070F1FC01EC0DFD1D4491141708F4142F58
:1008F00050E070E060E04F5F5F4F6F4F7F4FC40E7E
:10090000D51EE61EF71E2F5F3F4FE8CFFC01329643
:10091000E491F0E05C96FC93EE935B97FC013396D8
:10092000E491F0E05E96FC93EE935D97FC013496C3
:10093000E4915996EC93599725E030E0BCCF5A9654
:100940001C93DF91CF911F91FF90EF90DF90CF909C
:100950000895FC018385681738F52485358579E08D
:10096000679F200D311D1124848150E093819923CC
:1009700071F0882331F087E090E0FC01E41BF50B77
:10098000AF01240F351FF90180810C941D038823CA
:1009900031F087E090E0BC01641B750BAB01240FC4
:1009A000351FF9018081089580E008958F929F920C
:1009B000AF92BF92CF92DF92EF92FF92CF93DF93ED
:1009C000FC01242F30E08381882309F447C087E0AD
:1009D00090E0821B930B91E001C0990F8A95EAF792
:1009E0008385681708F040C024853585A90189E012
:1009F000689F400D511D1124BA01E48130E020E0D0
:100A000080E0A7E0B0E0C12CD12C7601C394F22F96
:100A1000AD01421B530BE11101C0A901460F571F45
:100A2000EA014881492351F04601570104C0880C6E
:100A3000991CAA1CBB1CFA95D2F788292F5F3F4F3F
:100A40002830310521F7DF91CF91FF90EF90DF90B3
:100A5000CF90BF90AF909F908F90089591E001C08C
:100A6000990F4A95EAF7BCCF80E0EDCFFC012281D7
:100A700021110C94D6040C94A904462F4770669556
:100A8000669566950C943605FC01848D90A1A6A50B
:100A9000B7A591FD15C0882381F0808D918D0597B4
:100AA000A9F481E024A535A52A173B0709F080E0C9
:100AB00080AB1197B7A7A6A70895828D938DEFCF2E
:100AC000882379F0808D918D059759F7CD01019696
:100AD00097A786A781E011969C91911180E080AB49
:100AE0000895828D938DF0CFFC018689978982309D
:100AF000910591F42389348936A325A331A720A732
:100B00008230910561F42189328933A722A70297A7
:100B100049F08FEF87A3089521893289EDCF23898A
:100B20003489F3CF81E0F6CFCF93DF9300D0CDB7F8
:100B3000DEB769831A82DC01ED91FC910084F185B6
:100B4000E02DBE016F5F7F4F099581E090E00F902F
:100B50000F90DF91CF910895089590E080E008957F
:100B60001F93CF93DF93EC01A881B9815A961C9112
:100B70008EA9180F8BA9811768F48CA99DA90097DD
:100B800011F00E94E8251BAB812F90E00E944C25BC
:100B90009DAB8CABDF91CF911F910895FC014385F4
:100BA00050E0440F551F70E060E0868597850C94F7
:100BB0003727CF92DF92EF92FF920F931F93CF933D
:100BC000DF93EC0188858823A1F08091330188238D
:100BD00061F08FB7F89490913301913041F59DB356
:100BE000909332019DB39DBB8FBF80E58CBD81E0AA
:100BF0008DBD60E08F810E94910388858823D1F0AC
:100C000030E020E08B8590E0880F991F2817390786
:100C1000C8F5EE85FF85E20FF31F80818EBD0000D1
:100C20000DB407FEFDCF8EB52F5F3F4FEBCF809306
:100C30003201DBCF10E000E08B8590E0880F991F38
:100C400008171907F8F4EE85FF85E00FF11FE08023
:100C5000DE80CD8088E0F82E6E2D661F6627661F29
:100C60008C2D0E949103EE0C61E08D2D0E9491036A
:100C700060E08D2D0E949103FA94F110EDCF0F5F8B
:100C80001F4FDACF61E08F810E949103888588230E
:100C900071F080913301882351F09FB7F89420912F
:100CA000330180913201213059F48DBB9FBFDF9118
:100CB000CF911F910F91FF90EF90DF90CF9008950B
:100CC0008FBFF5CFBF92CF92DF92EF92FF920F933B
:100CD0001F93CF93DF93FC012385621708F04EC06A
:100CE000EC01F9E06F9F70011124D12CC12C062F6B
:100CF00010E0BB24B394BC0CEC85FD85EE0DFF1D0C
:100D0000808590E00C2C02C0959587950A94E2F7B7
:100D100080FF27C0CE010E94CE058B858150990BA4
:100D2000801B910B880F991F2E853F85820F931F83
:100D3000FC01B082EC85FD85EE0DFF1DEC0DFD1D67
:100D400040818B858150990B801B910B880F991FD7
:100D50002E853F85820F931FFC014183CE010E94A7
:100D6000D905FFEFCF1ADF0A88E0C816D10409F6CB
:100D70008C859D85E80EF91EF7011086DF91CF91D5
:100D80001F910F91FF90EF90DF90CF90BF9008954B
:100D90000F931F93CF93DF93EC01162F042F822F15
:100DA0009B8191110E941D0399E0199F90011124CC
:100DB000AC85BD85A20FB31F602F70E09C8147E01A
:100DC00050E0461B570B911101C0AB01A40FB51F9A
:100DD0008C93EC85FD85E20FF31F20858C818823A1
:100DE000F1F047E050E0461B570B81E090E0A0E0B7
:100DF000B0E004C0880F991FAA1FBB1F4A95D2F705
:100E0000822B80878C89882321F0612FCE010E945C
:100E1000620681E0DF91CF911F910F91089581E0EB
:100E200090E0A0E0B0E004C0880F991FAA1FBB1F8C
:100E30000A95D2F7E5CF9F92AF92BF92CF92DF9201
:100E4000EF92FF920F931F93CF93DF93FC0189E002
:100E5000689FE001112481E090E0A0E0B0E06C0127
:100E60007D01042E04C0CC0CDD1CEE1CFF1C0A947A
:100E7000D2F7BC2C7C2D709507E010E0041B110903
:100E800004C0880F991FAA1FBB1F0A95D2F7A82E6E
:100E9000382F309590E080E0022F10E027E0E22E1E
:100EA000F12CAC01A485B585AC0FBD1F24819380C6
:100EB0006801082E02C0D594C7940A94E2F7C0FED8
:100EC0002AC0222319F0A701481B590BA40FB51FF4
:100ED0002C914B2D91104A2D242B2C930196883068
:100EE0009105F9F684859585C80FD91F8FEF8887FE
:100EF0008489882319F0CF010E94620681E0DF9186
:100F0000CF911F910F91FF90EF90DF90CF90BF9006
:100F1000AF909F900895222319F0A701481B590B09
:100F2000A40FB51F2C91472F9110432F2423D5CF09
:100F3000FC0152813385552321F0631730F40C9462
:100F40001B07631710F40C94C80680E00895242F43
:100F5000462F477033E0769567953A95E1F70C9404
:100F60009807FC0152813385552331F0631750F403
:100F7000483041F00C94C806631720F4483011F053
:100F80000C941B0780E00895CF92DF92EF92FF92BE
:100F90000F931F93CF93DF93FC01722F82815385B0
:100FA000882309F45DC0651708F0BEC0283009F435
:100FB000BBC009E0609F70011124848595858E0D6A
:100FC0009F1D50E0A22FB0E024812223B9F127E039
:100FD00030E0E901C41BD50BAE012A1B3B0B480FC7
:100FE000591FEA014881820F931FEC0148838485D1
:100FF0009585E701C80FD91F28858481882301F1D1
:1010000047E050E04A1B5B0B81E090E0A0E0B0E0DD
:1010100004C0880F991FAA1FBB1F4A95D2F7822BC5
:1010200088878489811118C081E0DF91CF911F9159
:101030000F91FF90EF90DF90CF9008959D01CFCF5B
:1010400081E090E0A0E0B0E004C0880F991FAA1FE3
:10105000BB1F7A95D2F7E3CFCF010E946206E4CF9F
:10106000A42FB0E09381992309F44FC027E030E02A
:101070002A1B3B0B91E001C0990F2A95EAF76517EF
:10108000A0F6783091F2D9E06D9FA001112401E023
:1010900010E020E030E068017901072E04C0CC0C9C
:1010A000DD1CEE1CFF1C0A94D2F7DC2DCC2DC09564
:1010B000A7E0B0E0A71BB10904C0000F111F221F59
:1010C000331FAA95D2F7F02E009530E020E0A485DA
:1010D000B585A40FB51FA20FB31F8C917381182F74
:1010E0001923D9F0711117C07D2F872B8C932F5F97
:1010F0003F4F2830310559F784859585480F591F92
:101100008FEFDA0118968C938CCF91E001C0990F84
:101110004A95EAF7B4CF7F2DE8CF711103C07C2F39
:101120008723E4CF702FFCCF80E07FCF8F929F92F8
:10113000AF92BF92CF92DF92EF92FF920F931F93E5
:10114000CF93DF93CDB7DEB728970FB6F894DEBF05
:101150000FBECDBF8C01D62E29E0629F70011124F5
:10116000FA013197E730F10558F4E754F74F0C9442
:1011700046250C093E097409AB09EC092C0A4C0AF6
:10118000DC0112968C918823C1F130E020E0D80177
:101190001C96ED91FC911D97EE0DFF1DE20FF31FC4
:1011A000808113969C91992331F190E095958795D4
:1011B00080832F5F3F4F2830310549F7F801848540
:1011C0009585E80EF91E8FEFD70118968C9381E074
:1011D00028960FB6F894DEBF0FBECDBFDF91CF913A
:1011E0001F910F91FF90EF90DF90CF90BF90AF9045
:1011F0009F908F900895880FDBCF87E090E0D80113
:101200001C96ED91FC91EE0DFF1DE80FF91F20815A
:1012100021830197A0F7D2CFFC0182818823E1F0DE
:1012200030E020E0D8011C96ED91FC911D97EE0D69
:10123000FF1DE20FF31F808113969C91992341F0CB
:10124000880F80832F5F3F4F2830310559F7B6CF85
:1012500090E095958795F5CF81E090E0D8011C96B8
:10126000ED91FC91EE0DFF1DE80FF91F20813197E4
:10127000208301968830910589F7A0CFFC01C280B8
:1012800085898823F9F040E0C801CC20C1F00E9494
:10129000A9048983CC20C1F020E0CC24C394C20EE1
:1012A0004C2D6D2DC8010E94C4072C2D2730A9F7A5
:1012B000298147E06D2DC8010E94B1077FCF0E94B0
:1012C000D604E7CF1982E6CF87E090E0D8011C96DC
:1012D000ED91FC91EE0DFF1DE80FF91F2081220F0B
:1012E0002083019798F7E4CFFC01C2808589882389
:1012F000D9F047E0C801CC20A1F00E94A90489835D
:10130000CC20A1F028E0CC24CA94C20E4C2D6D2D27
:10131000C8010E94C4072C2DC110F5CF298140E0DF
:10132000C9CF0E94D604EBCF1982EACF30E020E08B
:10133000D8011C96ED91FC91EE0DFF1DE20FF31FFD
:10134000808190E09595879580832F5F3F4F28306F
:10135000310571F7E3CFFC0182818823C1F0B12C04
:10136000A12CD8011C96CD90DC90CE0CDF1CCA0CB1
:10137000DB1CF60180810E941D03D6018C93BFEF18
:10138000AB1ABB0AE8E0AE16B10459F717CF30E04C
:1013900020E047E050E0D8011C968D919C918E0D85
:1013A0009F1DFC01E20FF31FD080BA01621B730B7B
:1013B000860F971FDC018C918083D8011C96ED91DC
:1013C000FC91EE0DFF1DE60FF71FD0822F5F3F4F00
:1013D0002430310501F7F2CEFC018281882329F106
:1013E00030E020E047E050E0D8011C968D919C91C0
:1013F0008E0D9F1DFC01E20FF31FD080BA01621B0E
:10140000730B860F971FDC018C918083D8011C968B
:10141000ED91FC91EE0DFF1DE60FF71FD0822F5FBF
:101420003F4F2430310501F7C9CEB12CA12CF80172
:10143000C484D584CE0CDF1CCA0CDB1CD6018C9175
:101440000E941D03F6018083FFEFAF1ABF0A28E058
:10145000A216B10461F7B2CECE0101965C014C0137
:1014600087E0C82E4C2D6D2DC8010E943605D40191
:101470008D934D01CA94BFEFCB12F4CFC12CF5016F
:1014800021915F014C2D6D2DC8010E94B107C394BD
:10149000F8E0CF12F4CF92CE90E080E0D8011C9615
:1014A000ED91FC91EE0DFF1DE80FF91F20812095B5
:1014B000208301968830910589F780CECF92DF9204
:1014C000EF92FF920F931F93CF93DF93EC01DD24F4
:1014D000D394F12CE12C01E010E0B9E0CB2ECE0149
:1014E0000E94CE0598010E2C02C0220F331F0A94D1
:1014F000E2F7E0E090E08B85E81798F5EC9DA0011D
:101500001124AC85BD85A40FB51F18966C9170E0B1
:1015100062237323672B19F16E2F70E08150990BB2
:10152000861B970B880F991FAE85BF85A80FB91F23
:10153000DC92AC85BD85A40FB51FAE0DBF1DFC911F
:101540008B858150990B861B970B880F991F4E85B1
:101550005F85840F951FDC011196FC9391E0EF5F8E
:10156000CACF992319F0CE010E94D905BFEFEB1A1B
:10157000FB0AD39488E0E816F10409F0B0CF80E0CC
:1015800099E02B85821748F4EC85FD85899FE00D55
:10159000F11D112410868F5FF4CFDF91CF911F9141
:1015A0000F91FF90EF90DF90CF900895CF93DF934E
:1015B000C9E078E05FEF4617B0F06C9F900111240E
:1015C000FC01A485B585A20FB31FFD01D72F119291
:1015D000DA95E9F7DC011C96ED91FC91E20FF31F1F
:1015E00050876F5FE8CFFC012489222321F0DF912F
:1015F000CF910C945E0ADF91CF9108956F927F9204
:101600008F929F92AF92BF92CF92DF92EF92FF9212
:101610000F931F93CF93DF93CDB7DEB729970FB604
:10162000F894DEBF0FBECDBF8C01E62EF42E59011B
:10163000D12C461708F4D5C0DC015496DC905497A1
:1016400054961C9224303105B0F522303105C8F58E
:101650002130310509F4DBC0D80155968C918823DF
:1016600009F486C06F2D660F660F660F695FC801AB
:101670000E943D05C82EAE2CB12C8F2D0F2C000CD6
:10168000990B8A159B050CF489C050E040E06F2D42
:10169000C8010E94960899249A949F0C47E0692DEE
:1016A000C8010E943605282F40E06F2DC8010E9416
:1016B0009807F92CE2CF2430310561F0283031054C
:1016C00058F6A5016E2DC8010E949608E394FE14F9
:1016D000C0F77EC0642F70E0AE2CB12C4B018A188D
:1016E0009B08BFEF8B1A9B0A97FE03C0EFEF8E1A81
:1016F0009E0A95948794712C29E0C22E472D50E0C4
:10170000481559050CF0CFC0F80124853585FA013C
:10171000EA0DFB1DCE9EC001CF9E900D1124820FBD
:10172000931FFC01DE0111966C2C01900D926A94BE
:10173000E1F7FB01E41BF50BCE9EA001CF9E500DFF
:101740001124F901E40FF51FDC018C2D01900D929D
:101750008A95E1F7F801A485B585A40FB51FFE01B0
:1017600031968C2D01900D928A95E1F77394C6CF36
:10177000F801A288B388A114B10471F06F2D660F2F
:10178000660F660F695FC8010E943D05482F70E033
:1017900060E08F2DF5010995C12C6DCFD8015096D1
:1017A000ED91FC915197309749F055968C918111AC
:1017B00005C070E060E08E2D0995C82EB50183E06C
:1017C000660F771F8A95E1F74C2DC8010E94A70785
:1017D000D8015496DC92DD2009F46FC0C8010E9444
:1017E0005E0A8D2D29960FB6F894DEBF0FBECDBFD1
:1017F000DF91CF911F910F91FF90EF90DF90CF90ED
:10180000BF90AF909F908F907F906F900895FC0154
:1018100085898823A9F1660F660F660FC8010E94AB
:101820003D05C82E41E050E06E2DC8010E9496088B
:10183000BB24B394BE0C40E06B2DC8010E9436055A
:10184000282F47E06E2DC8010E949807EB2CFB144F
:1018500048F7D8015096ED91FC915197309749F097
:1018600055968C91811105C061E070E08F2D09952E
:10187000C82EB8E0FB9EB0011124695F7F4FA4CF52
:10188000A288B388A114B10461F0660F660F660FD9
:10189000C8010E943D05482F61E070E08E2DF501E2
:1018A0000995C12CBFCF44E050E06E2DC8010E94C5
:1018B0009608E394FE14B8F78BCFDD24D39491CF30
:1018C000CF93DF93EC014CA16BA1461720F08881E8
:1018D00099810E94D60A8D8D882351F027E030E04F
:1018E0004CA16BA188819981DF91CF910C94FE0A64
:1018F000DF91CF910895CF92DF92EF92FF920F93F5
:101900001F93CF93DF93EC01D62EC42E790180E094
:101910004617E0F02A30310508F069C0CE010E9478
:10192000CE0592E0E916F10409F453C0C0F4E114C5
:10193000F10429F1F1E0EF16F10409F443C0D39466
:10194000CD1478F7CE010E94D90581E0DF91CF91C7
:101950001F910F91FF90EF90DF90CF90089583E05B
:10196000E816F104E9F194E0E916F10441F781E0A9
:101970000115110509F480E0819599E006C081E028
:101980000115110509F080E09CE04D2D50E02B85FC
:101990002150330B241B350B220F331F6E857F859F
:1019A000260F371FF90190832B852150330B241B01
:1019B000350B220F331F4E855F85240F351FF9012C
:1019C0008183BDCF802F083011050CF087E09BE0AC
:1019D000DCCF802F003111050CF08FE09AE0D5CFDD
:1019E00081E00115110509F480E09FE0CECF81E090
:1019F0000130110509F080E0FBE0EF16F10449F039
:101A00008C8B0130110509F0A0CFCE010E945E0A37
:101A10009CCF8D8B9ACF0F931F939B018A01FC0162
:101A20004385415060E00E947B0C1F910F91089507
:101A30000F931F93FC0161A3062F10E022E030E01A
:101A400044A163A1808191810E947B0C1F910F9121
:101A50000895CF92DF92EF92FF920F931F93CF934F
:101A6000DF937C016B01EA01CA0101960E944C25BB
:101A70008C010097F1F0AE01B6010E942E27F8010B
:101A8000EC0FFD1F1082D701ED91FC910084F185D0
:101A9000E02DB801C7010995C8010E94E825CE01D3
:101AA000DF91CF911F910F91FF90EF90DF90CF903A
:101AB0000895D0E0C0E0F3CFCF92DF92EF92FF9293
:101AC0000F931F93CF936C017B01C42F8901DC011D
:101AD000D196ED91FC91309709F1808191818E151D
:101AE0009F05C1F40280F381E02D80818C1708F4FA
:101AF000C82F4C2F50E0BF016F5F7F4FC8010E947D
:101B00002E278C2FCF911F910F91FF90EF90DF9098
:101B1000CF9008950480F581E02DDDCFF60180811E
:101B2000918122AD33ADDC0156964D915C91241725
:101B3000350751F02115310511F42CE730E0FC0197
:101B4000378B268B0E9402040115110509F448C049
:101B5000D6012D913C91F901878D90A1B0E0A0E0D4
:101B6000438D548DE416F506A0F1658D768D6E15C6
:101B70007F0578F166897789FB01E80FF91FE41684
:101B8000F50659F0E4918E0F911DA11DB11D01962E
:101B9000A11DB11D4F5F5F4FEFCF4491C41710F5EA
:101BA0000196A11DB11DA801801B910B642F601B24
:101BB0006C1708F0A6CFBC01640F751FD9015696AB
:101BC000ED91FC91E60FF71FE491DA01ED93AD0181
:101BD000EDCF4C2F50E070E060E0C8010E94372745
:101BE000C0E08FCFC491DCCF1F93CF93DF93EC0184
:101BF000142F2CA93DA94BA90E945C0D112389F03B
:101C0000882379F090E02EA9921758F42BA9821717
:101C100030F4ECA9FDA9E80FF11D10828F5F9F5FE2
:101C2000F2CFDF91CF911F9108950F931F93CF9320
:101C3000DF93EC018B01EEA5FFA541E081818111CD
:101C400001C040E0608170E0CE010E94F40DF80117
:101C5000808328A19C8D21FD10C0992359F0288DE7
:101C6000398D2530310581F4682F8CA99DA90E94FA
:101C700054030AC02A8D3B8DF4CF9923B9F0288DE7
:101C8000398D2530310581F788A180FF06C0F80124
:101C900060818CA99DA90E946E03CE010E9444051B
:101CA00081E0DF91CF911F910F9108952A8D3B8D97
:101CB000E8CF0F931F93CF93DF93EC01FB011082CA
:101CC000ACA5BDA5BFA7AEA7109719F08C91811147
:101CD00008C081E088AB80E0DF91CF911F910F9128
:101CE000089518AA8C8D98A191FD10C0882359F0F1
:101CF000888D998D059781F40D900020E9F7129752
:101D0000BFA7AEA709C08A8D9B8DF4CF882331F180
:101D1000888D998D059781F7AEA5BFA541E01196F5
:101D20008C911197811101C040E08B016C9170E0A2
:101D3000CE010E94F40DF801808328A19C8D21FD25
:101D400013C0992371F0288D398D2530310599F410
:101D5000682F8CA99DA90E9454030DC08A8D9B8D6C
:101D6000D9CF2A8D3B8DF1CF992399F0288D398DCC
:101D70002530310569F788A180FF06C0F801608130
:101D80008CA99DA90E946E03CE010E94440581E0AA
:101D9000A3CF2A8D3B8DECCFCF92DF92EF92FF92B3
:101DA0000F931F93CF93DF93EC010E94600CC988BF
:101DB000DA887E0187E3E80EF11CB701CE010E94AC
:101DC000590E19AE18AE86018B899C890817190720
:101DD0007CF18FA928AD39AD8217130611F081115E
:101DE0000AC01FAA88A9811104C0B701CE010E94B0
:101DF000150E19AE18AE8FA9882331F38881998109
:101E000048AD59AD9A012F5F3F4FECA9FDA9E40FF2
:101E1000F51F4D8D39AF28AF442341F040814095E7
:101E2000B8010E94A70701501109CECF4081F8CF19
:101E3000DF91CF911F910F91FF90EF90DF90CF90A6
:101E40000895FF920F931F93CF93DF93EC01F62E2B
:101E50008D859E85442309F462C08430910530F558
:101E6000019758F18D859E85059721F483E090E0D8
:101E70009E878D87CE010E94CC0E0DA11EA12FA1A1
:101E80008AA59BA5820F911D27FD9A958017910722
:101E9000E1F04D8D4195B801888199810E94A70795
:101EA0008FA1080F111D87FD1A95E9CF0597D1F273
:101EB00085E090E09E878D872CC0CE010E9474053E
:101EC00083E090E09E878D87CDCFFF2069F06DA1E4
:101ED0007EA10617170741F04D8D81E048274195F7
:101EE000888199810E94A7078DA19EA12FA1022E12
:101EF000000C330B4AA55BA5420F531F84179507AF
:101F000021F445E050E05E874D87820F931F9EA32A
:101F10008DA3DF91CF911F910F91FF900895843091
:101F2000910500F5019700F1CE010E94CC0E08A5A5
:101F300019A56DA17EA18FA1082E000C990B9B0104
:101F4000280F391F20173107B9F04D8D4195B80181
:101F5000888199810E94A7078FA1080F111D87FD15
:101F60001A95E7CF059751F5CE010E94740583E0DD
:101F700090E09E878D87D8CFFF2079F02AA53BA5DA
:101F8000820F931F6817790741F04D8D81E0482734
:101F90004195888199810E94A7078DA19EA12FA1BB
:101FA000022E000C330B4AA55BA5420F531F84176A
:101FB000950709F0AACF46E050E0A5CF86E090E073
:101FC00079CFAF92BF92CF92DF92EF92FF920F93B1
:101FD0001F93CF93DF93EC01F62E8D859E854423CE
:101FE00009F46EC08430910580F50197A8F1CE0107
:101FF0000E94600CCE010E94CC0ECBA088E0C89E4F
:1020000060011124EE24E394F11002C050E8E52EA3
:102010000DA11EA18CA190E0019643E0880F991FAD
:102020004A95E1F7C816D906ACF5A880B9806C2DA1
:10203000C5010E943D05101624F5FF2001F1880F0F
:102040009D8D91118E290150F6CF059781F285E083
:1020500090E09E878D8729C087E090E09EA38DA3A6
:1020600010E000E02BE030E04CA16BA18881998169
:102070000E947B0C83E090E09E878D87B8CF869589
:10208000DFCF482FB601C5010E94A7078FEFC81AFE
:10209000D80ABECF0115110521F485E090E09E8796
:1020A0008D87015011091EA30DA3DF91CF911F91C0
:1020B0000F91FF90EF90DF90CF90BF90AF90089579
:1020C0008430910560F5019760F10BA188E0089FCD
:1020D0008001112430E8E32EF11002C0EE24E394D5
:1020E0008CA190E0019623E0880F991F2A95E1F7D3
:1020F00008171907FCF4C880D980602FC6010E9418
:102100003D05482FFF20A1F046958D8D81114E2968
:10211000B801C6010E94A7070F5F1F4FE1CF0597C7
:10212000B1F41EA21DA283E090E09E878D87CDCFE3
:10213000440FEBCF8DA19EA18730910521F426E0BD
:1021400030E03E872D8701969EA38DA3AECF86E01B
:1021500090E07FCFCF92DF92EF92FF921F93CF93C9
:10216000DF93EC01D42E8D859E85662309F458C03B
:1021700084309105A8F50197D0F1CE010E94CC0ED4
:102180002DA13EA12830310569F1E8A4F9A481E030
:1021900090E001C0880F2A95EAF7182FD11010950A
:1021A0002FA18AA59BA5820F911D27FD9A958E15BB
:1021B0009F0549F1C880D9806E2DC6010E943D055A
:1021C0009D8D412F9923E9F04095482BB701C60119
:1021D0000E94A7078FA1E80EF11C87FDFA94E0CFBB
:1021E000059759F285E090E09E878D8711C0CE015A
:1021F0000E9474051EA21DA283E090E09E878D8739
:10220000BCCF4823E3CF8DA19EA101969EA38DA3B1
:10221000DF91CF911F91FF90EF90DF90CF900895C5
:102220008430910598F5019798F1CE010E94CC0E6B
:102230008DA19EA110E097FD05C011E001C0110F16
:102240008A95EAF7E8A4F9A4D11010952FA18AA5E0
:102250009BA5820F911D27FD9A958E159F0531F143
:10226000C880D9806E2DC6010E943D059D8D412FED
:102270009923D1F04095482BB701C6010E94A707CA
:102280008FA1E80EF11C87FDFA94E0CF0597C1F409
:10229000CE010E94740587E090E09EA38DA383E0A9
:1022A00090E09E878D87C1CF4823E6CF8DA19EA168
:1022B00097FF04C026E030E03E872D870197A6CF28
:1022C00086E090E091CFFF920F931F93CF93DF931F
:1022D000EC01F42E8D859E85662309F444C084307C
:1022E000910538F5019760F1CE010E94CC0E2DA129
:1022F0003EA18AA59BA528173907E9F008A519A5CD
:102300008FA1082E000C990B2DA13EA14AA55BA51B
:10231000480F591F4017510709F464C0F11018C045
:1023200002171307C1F48FA1080F111D87FD1A951D
:10233000E7CF0597C9F285E090E09E878D8756C06C
:10234000CE010E94740583E090E09E878D87CCCFFC
:102350000217130741F74D8D4195B8018881998186
:102360000E94A707E0CF8430910500F5019700F1A6
:10237000CE010E94CC0E08A519A54AA55BA58FA188
:10238000082E000C990B2DA13EA1BA01680F791FF0
:102390006017710701F1F11013C00217130799F4C8
:1023A0008FA1080F111D87FD1A95E7CF059721F51D
:1023B000CE010E94740583E090E09E878D87D8CF80
:1023C0000217130769F74D8D4195B80188819981EE
:1023D0000E94A707E5CF2417350724F446E050E014
:1023E0005E874D87820F931F9EA38DA3DF91CF91B0
:1023F0001F910F91FF90089586E090E09ECFEF929D
:10240000FF920F931F93CF93DF93EC01162F8D85CF
:102410009E85442309F488C08330910528F00397F2
:10242000B1F185E090E02AC069897A898B899C891D
:102430009B01281B390BC90137FD0196959587959E
:1024400001969EA38DA31123B9F04D8D11E0412774
:102450004195681B790B888199810E94A7074D8D52
:10246000412741956B897C898DA19EA1680F791FB9
:10247000888199810E94A70783E090E09E878D87DD
:10248000DF91CF911F910F91FF90EF9008958DA153
:102490009EA197FDC6CFCE010E94CC0EF12CE12C5F
:1024A0006DA17EA1E616F706C4F44D8D41956B89AA
:1024B0007C896E0D7F1D888199810E94A7074D8DB3
:1024C000419569897A896E197F09888199810E946D
:1024D000A7073FEFE31AF30AE3CF615071097EA328
:1024E0006DA3112369F277FDCBCF4D8D11E041270C
:1024F00041958B899C89680F791F888199810E94F9
:10250000A7074D8D4127419569897A898DA19EA1A3
:10251000681B790B88819981DF91CF911F910F9171
:10252000FF90EF900C94A7078330910531F108F0EC
:1025300077C0019708F477C0CE010E94600CCE01ED
:102540000E94CC0E1EA21DA2112399F04D8D01E018
:102550004027419569897A89888199810E94A707D6
:102560004D8D402741956B897C89888199810E9496
:10257000A70783E090E09E878D872DA13EA1698902
:102580007A898B899C89AB01481B590BCA0157FD7D
:10259000019695958795821793070CF444C04D8D4D
:1025A0004195621B730B888199810E94A7074D8D0D
:1025B00041956B897C898DA19EA1680F791F8881C7
:1025C00099810E94A7072DA13EA12F5F3F4F3EA3F7
:1025D0002DA3112309F454CF69897A898B899C89A9
:1025E000AB01481B590BCA0157FD0196959587957C
:1025F000821793070CF444CF4D8D11E0412741958C
:10260000621B730B888199810E94A7074D8D41271A
:1026100041956B897C898DA19EA1680F791F7ACF26
:10262000059709F489CF86E090E028CFCF92DF921A
:10263000EF92FF920F931F93CF93DF93EC01162F2E
:102640008D859E85442309F458C084309105B0F5EA
:10265000019708F43AC0CE010E94CC0E2DA13EA1F4
:1026600090E080E0111102C08FEF90E02817390749
:1026700039F1E8A4F9A42FA18AA59BA5820F911D89
:1026800027FD9A958E159F0581F10D8DC880D98003
:102690006E2DC6010E943D05011180954DA11111BD
:1026A0004095482301114095B701C6010E94A70734
:1026B0008FA1E80EF11C87FDFA94DDCF059759F242
:1026C00085E090E09E878D8771C0CE010E947405E1
:1026D0008FEF90E0111102C081E090E09EA38DA3E6
:1026E00083E090E09E878D87B6CF8DA19EA11123B8
:1026F00009F457C09595879557C08430910550F5DA
:10270000019750F1CE010E94CC0EE8A4F9A42FA1AC
:102710008AA59BA5820F911D27FD9A958E159F0571
:1027200059F10D8DC880D9806E2DC6010E943D05DE
:10273000011180954DA1111140954823011140953B
:10274000B701C6010E94A7078FA1E80EF11C87FD03
:10275000FA94DDCF0597C1F4CE010E94740581E0A3
:1027600090E0111102C08FEF90E09EA38DA383E053
:1027700090E09E878D87C6CF8DA19EA1111107C0C5
:10278000009709F0B7CF06C086E090E09BCF8F3F5F
:10279000910539F426E030E03E872D87112309F4B6
:1027A000A9CF880F991F81609EA38DA3DF91CF9140
:1027B0001F910F91FF90EF90DF90CF900895AF920F
:1027C000BF92CF92DF92EF92FF920F931F93CF931E
:1027D000DF93EC01F62EE42E8D859E85222309F4ED
:1027E000A9C08430910590F50197B8F1CE010E94FF
:1027F000600CCE010E94CC0E0DA11EA1EE2009F4AA
:102800004BC0EE24E394F11002C070E8E72ECDA097
:10281000DEA08CA190E0019663E0880F991F6A9575
:10282000E1F7081719070CF06FC0A880B980602F76
:10283000C5010E943D059C2D191624F5FF2001F1CC
:10284000880F2D8D21118E299150F6CF059771F2A9
:1028500085E090E09E878D8762C087E090E09EA330
:102860008DA310E000E02BE030E04CA16BA188814B
:1028700099810E947B0C83E090E09E878D87B6CF84
:102880008695DFCFB8016C197D09482FC5010E94DC
:10289000A7070F5F1F4FBBCF8CA128E0829FC0010D
:1028A00011249C01201B310B8901085F1F4FEE246E
:1028B000E394F11002C050E8E52ECDA0DEA08BA17C
:1028C00038E0839FC001112408171907ECF0A88095
:1028D000B980602FC5010E943D059C2D191654F446
:1028E000FF2031F0880F2D8D21118E299150F6CFC8
:1028F0008695F9CFB8016C0D7D1D482FC5010E944A
:10290000A70701501109D9CF8DA19EA1009721F4ED
:1029100025E030E03E872D8701979EA38DA3DF91B0
:10292000CF911F910F91FF90EF90DF90CF90BF90CC
:10293000AF9008958430910580F5019788F1EE20DD
:10294000C1F10CA188E0089F800111240A5F1F4F8C
:1029500040E8B42EF11002C0BB24B394C880D980E3
:102960008BA128E0829FC0011124081719070CF4DD
:1029700050C0602FC6010E943D05482FFF20B9F0CE
:1029800046958D8D81114B29B8016F5F7F4FC60130
:102990000E94A70701501109E1CF059709F059C01E
:1029A0001EA21DA283E090E09E878D87C8CF440FB2
:1029B000E8CF0BA138E0039F800111240F5F1F4F68
:1029C00030E8B32EF11002C0BB24B394C880D98084
:1029D0008CA190E0019623E0880F991F2A95E1F7DA
:1029E00008171907B4F4602FC6010E943D05482F4F
:1029F000FF2069F046958D8D81114B29B8016150FA
:102A00007109C6010E94A7070F5F1F4FDFCF440F58
:102A1000F2CF888199814D8D4195EE2091F06BA187
:102A200028E0629FB00111240E94A7078DA19EA1FA
:102A30008730910521F426E030E03E872D8701960E
:102A40006CCF6CA138E0639FB0011124695F7F4FA8
:102A5000EBCF86E090E0FECECF92DF92FF920F9315
:102A60001F93CF93DF93EC01F62E8D859E85442333
:102A700009F484C08330910570F0039751F185E02B
:102A800090E09E878D87DF91CF911F910F91FF90EE
:102A9000DF90CF9008951EA21DA2CE010E94600C6F
:102AA000FF2099F04D8D11E04127419569897A8980
:102AB000888199810E94A7074D8D412741956B8997
:102AC0007C89888199810E94A70783E090E09E8796
:102AD0008D87CE010E94600CCE010E94CC0E0B8926
:102AE0001C8989899A89801B910B97FD01966C013D
:102AF000D594C7948DA19EA1080F191FC816D90699
:102B00000CF4BDCF0F5F1F4F69897A898DA19EA1FB
:102B10009B01281B390B0217130744F44D8D419577
:102B2000B801888199810E94A707ECCF01969EA3E6
:102B30008DA3FF2009F4A7CFC816D9060CF4A3CFA4
:102B40004D8D11E041274195681B790B8881998152
:102B50000E94A7074D8D412741956B897C898DA1E6
:102B60009EA1680F791F88819981DF91CF911F9174
:102B70000F91FF90DF90CF900C94A70783309105C1
:102B8000D1F1A0F50197A0F189899A892B893C8917
:102B9000821B930B97FD0196959587959EA38DA318
:102BA000CE010E94600CCE010E94CC0EFF20D9F015
:102BB0004D8D11E04127419569897A898DA19EA1AA
:102BC000681B790B888199810E94A7074D8D412749
:102BD00041956B897C898DA19EA1680F791F8881A1
:102BE00099810E94A70783E090E04BCF059761F29F
:102BF00086E090E046CF8DA19EA197FDF9CF4D8D47
:102C0000419569897A89681B790B888199810E942D
:102C1000A7074D8D41956B897C898DA19EA1680F79
:102C2000791F888199810E94A7078DA19EA1019794
:102C30009EA38DA3FF2009F426CF97FD24CF4D8DB1
:102C400011E04127419569897A897ECF8F929F92C1
:102C5000AF92BF92CF92DF92EF92FF920F931F93AA
:102C6000CF93DF93EC01F62E8D859E85442309F4E6
:102C7000E0C08E01095C1F4F35E0C32ED12C82309D
:102C80009105E9F050F08330910509F441C00497B3
:102C900009F4A8C085E090E00FC0BE01695C7F4FD9
:102CA000CE010E94590E811103C086E090E004C05D
:102CB00019AE18AE83E090E09E878D870DC01FAAE5
:102CC00088A98823B1F0DE86CD868D859E852FA9C3
:102CD000211116C0059799F7DF91CF911F910F91A0
:102CE000FF90EF90DF90CF90BF90AF909F908F902C
:102CF0000895B801CE010E94150E8111E6CFE3CFF1
:102D0000059751F319AE18AE83E090E09E878D874A
:102D10008FA9882329F121E02F2530E04CA16BA158
:102D2000888199810E94FE0A888199816D8D2CA9E4
:102D30003DA948AD59AD662301F1BA016F5F7F4FE0
:102D400079AF68AF240F351FF90140814095FF200E
:102D5000F1F06BA1F8E06F9FB00111240E94A7076A
:102D60002FA988AD99AD2817190609F0B5CF88A904
:102D7000811115C082E090E09FCFBA016F5F7F4F55
:102D800079AF68AF240F351FF9014081E0CF6CA106
:102D900028E0629FB0011124695F7F4FDFCF29894E
:102DA0003A89FF20B1F08F859889A901481B590BFA
:102DB000CA0101962BA158E0259F80199109112481
:102DC00099AF88AF181619060CF064CF84E090E034
:102DD00073CF8CA1E8E08E9FC00111240796821B5F
:102DE000930BEECF21E0262730E04CA16BA1888128
:102DF00099810E94FE0A888199814D8D4195FF201D
:102E000081F06BA1F8E06F9FB00111240E94A70729
:102E100088AD99AD019799AF88AF892B09F05CCF48
:102E200039CF6CA128E0629FB0011124695F7F4F08
:102E3000EDCF8430910539F0059709F036CF84E065
:102E400090E09E878D8721E02F2530E04CA16BA17B
:102E5000888199810E94FE0A888199814D8D4195D2
:102E6000FF2009F445C06BA138E0639FB001112435
:102E70000E94A7070CA110E0ABA0B12C6801CA18F2
:102E8000DB088FEFC81AD80A23E0CC0CDD1C2A958A
:102E9000E1F78E8D9F8D009721F08C159D0508F42C
:102EA0006C010F5F1F4F83E0000F111F8A95E1F740
:102EB00093E0AA0CBB1C9A95E1F7FF2021F1450194
:102EC0007401EA18FB0880169106DCF5682D8881EC
:102ED00099810E943D0590E02D8D222389F02FEFEE
:102EE00030E08217930769F5EFEF8E1A9E0AE8CF5C
:102EF0006CA158E0659FB0011124695F7F4FB8CF86
:102F000030E020E0EECF01501109F12CE12C0A1540
:102F10001B05BCF0602F888199810E943D0590E0DF
:102F20002D8D222359F02FEF30E08217930749F4BB
:102F300001501109FFEFEF1AFF0AE9CF30E020E05E
:102F4000F4CFEC14FD0408F0B0CEC6CE2F923F9221
:102F50004F925F926F927F928F929F92AF92BF92A9
:102F6000CF92DF92EF92FF920F931F93CF93DF9355
:102F7000CDB7DEB72D970FB6F894DEBF0FBECDBF2D
:102F80009A8389837D836C83DC0198968C919897D2
:102F9000882309F48AC09596ED91FC9186899789DA
:102FA00075A764A7E981FA8120A5222329F005A04D
:102FB000F6A1E02D978B868BA981BA8198968C918A
:102FC0009897882349F09596ED91FC911086178289
:102FD0001286118614861386E981FA8180A58823DA
:102FE00059F005A0F6A1E02D81E090E0918F808F4F
:102FF000138E128E1686158629813A812C5F3F4FDB
:103000003F832E8306E010E0E5E06E2E712CF3E0A6
:103010004F2E512C50E040E06AE070E08E819F819D
:103020000E940B0D212C1B82A981BA8198968C914C
:103030009897281610F00C94A4209596ED91FC9189
:1030400024E4229EE00DF11D1124FD87EC8712A2DD
:103050002585368581E02630310509F4CBC1848D84
:10306000882331F187819085B0E0A0E025303105DB
:1030700029F12FB7F89440913501509136016091B4
:103080003701709138012FBFEC85FD85C380D48056
:10309000E580F6804C195D096E097F0948175907CC
:1030A0006A077B0758F580E0A5C181E090E07ACF00
:1030B000AC85BD8519968D919C91D6CF2FB7F8948C
:1030C000409135015091360160913701709138017E
:1030D0002FBFEC85FD85C380D480E580F6804C1938
:1030E0005D096E097F09C384D484F12CE12C4C1551
:1030F0005D056E057F0508F0BCCFD5CFAC85BD85DD
:1031000012969C909110CFCF2FB7F89480913501F3
:1031100090913601A0913701B09138012FBFEC8515
:10312000FD8583839483A583B68381E082A3A4A4D1
:10313000B5A4A114B10409F453C1858596850097FF
:1031400009F433C0069709F44BC1AC85BD855C9684
:103150003C905C97332009F4F8C05896ED91FC91AF
:103160003197EC31F10508F095C3E754F74E0C9414
:103170004625CF19D819FF19021A091ADB1E0C1A95
:10318000821B4D1C901DDA1C1A1E58205F206920DE
:10319000622072206B2074207B207E208520882076
:1031A0009020932097209A20A120AC85BD859F96E2
:1031B000BC92AE929E979496EC90B8E0EB9E700114
:1031C0001124F70137967F01AC85BD8593968C91CC
:1031D000B8E08B9FE018F1081124EFEFEE1AFE0A19
:1031E000D12CC12CD5016D915D016623C1F0EC8518
:1031F000FD8524A935A970E043A9CF010E945C0D8B
:1032000090E0C80ED91E892B69F3D5018C918823D3
:1032100049F3EC85FD8586A9C80ED11CE3CFAC85AA
:10322000BD855096DC92CE921F9756968D919C91BB
:103230008130910509F455C028F0029771F1992465
:1032400093941DC0EC85FD8584A190E0019673E008
:10325000880F991F7A95E1F79C0121503109328B33
:10326000218BEC14FD0490F483A1F8E08F9FC00142
:103270001124AC85BD8554969C938E93539781E021
:103280009826EC85FD85958A848F5FCF8C199D09E2
:10329000EC85FD85948B838BD2CFAC85BD859396D1
:1032A0008C91B8E08B9FC0011124EC85FD85948B37
:1032B000838BEC14FD0468F484A1F8E08F9FC001B7
:1032C00011240796AC85BD8552969C938E93519799
:1032D000D6CF0197C80ED91EEC85FD85D28AC18A4A
:1032E000AECFAC85BD8593962C91B8E02B9F900115
:1032F0001124EC14FD0498F4EC85FD8584A1F8E01C
:103300008F9FC00111240796AC85BD8552969C9372
:103310008E93519754963C932E935397B0CFEC18BD
:10332000FD08F694E794E20EF31EEC85FD85F48A21
:10333000E38AF1E0CF1AD108CE0CDF1CAC85BD8545
:103340005296DC92CE9251977ACFAC85BD855A9633
:10335000ED91FC913197EC31F10508F09BC2ED54F1
:10336000F64E0C944625BF1CD819FF19021A091AEB
:10337000DB1E0C1A821B4D1C901DDA1C1A1E5820D5
:103380005F206920622072206B2074207B207E20C9
:10339000852088209020932097209A20A1208C853A
:1033A0009D850E94CC0EEC85FD857686658606C0DF
:1033B000432D61E08C859D850E94E10FAC85BD8524
:1033C0005C968C915C971D962D913C91882329F0F9
:1033D00081E02530310509F480E0EC85FD85848F9E
:1033E00081E0AC85BD851D962D913C91263031053F
:1033F00009F059CEBB81B82BBB83239415CE432D46
:1034000060E0D8CF432D61E08C859D850E94261613
:10341000D5CF432D60E0F8CFEC85FD858585968579
:10342000332009F4EAC07F01F7E3EF0EF11C82308C
:103430009105A1F130F0039709F45BC0AC85BD851F
:1034400066C26C857D85695C7F4F8C859D850E94F9
:10345000590E811103C0AC85BD85CAC68C859D857A
:103460000E94600CEC85FD8511AE10AE83A1F8E0E2
:103470008F9FC0011124AC85BD8596969C938E9339
:10348000959751968D919C9152979B969C938E9374
:103490009A971E965C924E921D9790CFEC85FD8573
:1034A00017AA80A9882381F0AC85BD851E967C92E1
:1034B0006E921D97EC85FD858585968527A921113E
:1034C0000BC0059759F77ACFB7018C859D850E946F
:1034D000150E8111EFCFE8CF059709F46FCFAC85BA
:1034E000BD85D9961C921E92D8971E965C924E92DC
:1034F0001D97EC85FD8565A176A182A593A504A8FD
:10350000F5A9E02DAC85BD85D8962D913C91D99734
:10351000E20FF31F40816817790751F48D919C9158
:1035200011975D962C91211140950E94A7073BCFE2
:10353000411135C0AC85BD8596969C938E93959729
:10354000EC85FD8585A196A122A533A58217930759
:10355000C1F420AD31AD43A1F8E04F9FA00111248B
:10356000AC85BD8596965C934E9395972F5F3F4FA4
:10357000D9963C932E93D89701979B969C938E93C4
:103580009A97EC85FD8527A980AD91AD281719067E
:1035900009F014CF82E090E0968785870FCFEC8505
:1035A000FD85458D4195808191810E94A707AC855D
:1035B000BD8595966D917C9196976F5F7F4F96969E
:1035C0007C936E9395978D919C9111975D96EC915C
:1035D0005D97D4962D913C91D597D8964D915C915D
:1035E000240F351FEE2331F0F901408140950E94F0
:1035F000A707A6CFD9014C91FACF8130910508F4E5
:103600002ACF8430910568F0059709F024CFEC8526
:10361000FD858189928993A782A796A385A3568663
:103620004586AC85BD85CD90DC9011975D968C91DB
:1036300088248A94912C811102C0912C812CEC85D4
:10364000FD85A388B488AC85BD859596ED90FC90EA
:103650006E2DC6010E943D05EC85FD8522A533A592
:103660008815190451F42A153B053CF0C90101974E
:1036700093A782A736A325A3E6CF2F5F3F4F2A1536
:103680003B050CF4E8CEEC85FD8524A1F8E02F9FE6
:1036900090011124295F3F4FE216F3063CF4B70175
:1036A0006F5F7F4F482FC6010E94A707AC85BD857D
:1036B0005D964C915D97419595966D917C9196970D
:1036C0008D919C910E94A707EC85FD8525A136A1CF
:1036D0002F5F3F4F36A325A384A190E0019643E0DE
:1036E000880F991F4A95E1F72817390709F066CE28
:1036F00082A593A59C012150310933A722A796A347
:1037000085A35CCEEC85FD8585859685332009F4FF
:1037100067C08430910508F042C0019708F443C0A7
:103720008C859D850E94600C8C859D850E94CC0EA9
:10373000EC85FD8593A0990C990C990C88248394B1
:10374000AC85BD859596ED90FC90969794968C915E
:10375000949790E0019623E0880F991F2A95E1F74E
:10376000A92CB12CA816B90674F5CD90DC90692D62
:10377000C6010E943D05482F50E087E090E08E1979
:103780009F093320D9F002C0559547958A95E2F7F5
:10379000B501C6010E94A70738249394D1CF05979D
:1037A00009F4BECF00CEAC85BD8596961C921E92C4
:1037B00095971E965C924E921D97B2CF01C0440F12
:1037C0008A95EAF7E5CFBFEFEB1AFB0AEC85FD859A
:1037D000F6A2E5A2F8E0EF16F10409F0EFCD2ECE47
:1037E0008430910598F50197A0F1AC85BD8593963D
:1037F0009C90990C990C990C8824839433243394CD
:10380000EC85FD85E5A0F6A084A190E00196B3E0EB
:10381000880F991FBA95E1F7A92CB12CA816B90603
:103820005CF5C080D180692DC6010E943D05482FFE
:1038300050E08820D9F001C0440FEA94EAF7B501BE
:10384000C6010E94A70783249394DACF059709F055
:1038500002CEE1E0F0E0AC85BD859696FC93EE9358
:1038600095971E965C924E921D97BFCF02C05595BC
:103870004795EA94E2F7E3CFFFEFEF1AFF0AAC8532
:10388000BD859696FC92EE929597B8E0EB16F10402
:1038900009F094CDEC85FD8508C4EC85FD85858512
:1038A0009685332009F45AC08430910500F58230A2
:1038B000910500F5009781F1019709F0BFCDAC8526
:1038C000BD8595966D917C919697CB0101969696C4
:1038D0009C938E939597CD010E94180D8C859D85A4
:1038E0000E94CC0EEC85FD855686458667CD0597F2
:1038F00009F0A4CDAC85BD8595966D917C91969788
:103900009A968D919C919B9786179707ECF41E963B
:103910007C926E921D9752CDAC85BD8596961C9279
:103920001E92959791968C91919790E09B969C937F
:103930008E939A97CD010E94600C21E030E0EC85D7
:10394000FD85368725873ACDCB010196EC85FD852F
:1039500096A385A3CF010E94180D30CD8430910528
:1039600098F40197A0F0EC85FD8565A176A1CB01C7
:10397000019777FFEBCF62A5CF010E94180D8C85D0
:103980009D850E94600C67CD059709F064CDEC859C
:10399000FD8561A1862F90E093A782A796A385A3BA
:1039A000CF010E94180D8C859D850E94CC0EAC85A0
:1039B000BD856FCDEC85FD85858596858230910529
:1039C00009F45DC048F4009769F00197B9F031102F
:1039D0002EC186E090E0E6C08330910509F492C0E4
:1039E0000597A9F7AC85BD8596961C921E92959772
:1039F000E1E0F0E01E96FC93EE931D97AC85BD854B
:103A000095968D919C919697019696969C938E9300
:103A100095979396EC90B8E0EB9E70011124DD240D
:103A2000D394EC85FD8525A136A184A190E0019673
:103A3000A3E0880F991FAA95E1F7E816F90694F418
:103A4000C701837099278217930744F4458D4D254C
:103A50004195B701808191810E94A707FFEFEF1A7E
:103A6000FF0ADFCF82E090E02430310509F0A6CCD8
:103A7000AC85BD851E969C938E931D979FCC8C859F
:103A80009D850E94600C332021F08C859D850E94CD
:103A9000CC0EEC85FD8585A196A1019796A385A303
:103AA000E3A0F8E0EF9E70011124DD24D394AC85EF
:103AB000BD8595962D913C91969794968C9194976F
:103AC00090E00196F3E0880F991FFA95E1F7E81668
:103AD000F906A4F4C701837099278217930754F459
:103AE0005D964C915D974D254195B7018D919C91C7
:103AF0000E94A707BFEFEB1AFB0AD9CF232B09F0CF
:103B00005DCCF0CE8C859D850E94600C332009F43D
:103B100012C18C859D850E94CC0E85E090E0A8CFD7
:103B2000AC85BD851D968D919C918230910509F4DF
:103B30003CC038F08330910509F46EC0059709F058
:103B4000F8C0EC85FD85E3A0F8E0EF9E700111243C
:103B5000AC85BD8594968C91949790E00196E3E0B6
:103B6000880F991FEA95E1F7E816F906CCF45D96FF
:103B7000BC905D97CD90DC906E2DC6010E943D05F6
:103B8000B110809545E5E0FE4AEA482BB11040951A
:103B9000B701C6010E94A707BFEFEB1AFB0AD8CFF7
:103BA00082E090E0EC85FD85F7CC8C859D850E94B8
:103BB000600C332021F08C859D850E94CC0EAC8555
:103BC000BD859396EC90B8E0EB9E70011124EC85D6
:103BD000FD8584A190E0019673E0880F991F7A9586
:103BE000E1F7E816F9060CF0E2CEB58CC080D18082
:103BF0006E2DC6010E943D05B11080954AEAE0FE97
:103C000045E5482BB1104095B701C6010E94A707B2
:103C1000FFEFEF1AFF0ADBCF8C859D850E94600CB9
:103C2000332009F4D6CE8C859D850E94CC0E85E08C
:103C300090E0B8CFEC85FD8585859685843091052B
:103C400008F07CC0019708F47CC0EC85FD8516A2C5
:103C500015A20E9454244B015C010E9454246887E1
:103C600079878A879B87AC85BD859596CD90DC90BA
:103C7000BFEFCB1ADB0AEC85FD85D6A2C5A2C50134
:103C8000B4012BE030E040E050E00E94AC2470E052
:103C90009B01295D3E4F7901D901BC9068857985EA
:103CA0008A859B8528E030E040E050E00E94AC240B
:103CB0008B2D90E0062E02C0959587950A94E2F729
:103CC00080FF05C0B8E8CB16B3E1DB0614F281E053
:103CD00090E001C0880F6A95EAF7B82AF701B08230
:103CE0008C859D850E94CC0EAC85BD8596961C92D8
:103CF0001E9295979396BC90BB0CBB0CBB0CEC85AD
:103D0000FD8584A190E0019663E0880F991F6A9574
:103D1000E1F7CB2CD12CC816D90614F1E7E2F1E07B
:103D200081918F3F09F04ACB2FE231E02E173F07F8
:103D3000B9F73110F2CE86E090E09ACE059709F0FF
:103D400046CEE7E2F1E0119222E331E02E173F0781
:103D5000D1F7AC85BD851E965C924E921D9775CFAE
:103D6000AC85BD85ED90FC906B2DC7010E943D0593
:103D7000AC85BD859596ED91FC91E95DFE4F408146
:103D8000311001C040954823B601C7010E94A70722
:103D9000EC85FD8585A196A101968B30910521F0DA
:103DA00096A385A3B394ABCFAC85BD8596961C92A4
:103DB0001E929597F7CFAC85BD851D968D919C91F0
:103DC0003110F6C18430910508F0EEC1019778F505
:103DD0008C859D850E947405EC85FD8580A591A547
:103DE00022A533A58217930724F431A720A793A710
:103DF00082A7AC85BD85DE968D919C91DF97892B3E
:103E000009F4F6C1EC85FD8583A1F8E08F9FC00120
:103E100011240197AC85BD8596969C938E939597BA
:103E200097961C9297971E965C924E921D978C8542
:103E30009D850E94CC0EEC85FD8585A196A10196FD
:103E400096A385A3F12C6F01F1E4CF0ED11CD6010E
:103E50002C91EC85FD8565A176A1822F90E0F2166C
:103E600008F0E1C04F2D50E0641B750B84A190E079
:103E7000019633E0880F991F3A95E1F768177907A3
:103E80002CF583A1F8E08F9FC001112468177907F2
:103E9000ECF0AC85BD858D919C91119797963C91E6
:103EA0009797320390011124420F531FDE96ED9134
:103EB000FC91DF97E40FF51F5D962C91222309F406
:103EC000B0C0E4914E2F40950E94A707F394BFCF56
:103ED000EC85FD8517A284A190E0019653E0880F40
:103EE000991F5A95E1F796A385A3568645868C853A
:103EF0009D850E94CC0EAC85BD8595968D919C913B
:103F00009697019796969C938E939597F12C6D01B9
:103F1000B0E4CB0ED11CF6012081AC85BD85959611
:103F20006D917C919697F21608F03AC0EF2DF0E073
:103F30006E0F7F1F94968C91949790E0019643E0CA
:103F4000880F991F4A95E1F7681779072CF5939622
:103F50008C91B8E08B9FC001112468177907E4F0B9
:103F6000AC85BD858D919C91119797964C919797B3
:103F70004203A00111244E0F5F1FDC96ED91FC91CE
:103F8000DD97E40FF51F5D962C91222339F0E49123
:103F90004E2F40950E94A707F394BDCF4491FACFCE
:103FA0007B01B1E0EB1AF108EC85FD8582A593A5B4
:103FB000E816F9065CF0458D4195B7018081918145
:103FC0000E94A707F1E0EF1AF108EECFAC85BD859E
:103FD00097968C9197978F5F97968C939797082ECB
:103FE000000C990BFD01EE5BFF4F2081281719068D
:103FF00009F014F497961C92EC85FD8583A1F8E0F6
:104000008F9FC0011124D6012C91821B9109019729
:10401000EC85FD8525A136A12817390709F0CEC901
:10402000C4C9449151CF7B01E81AF90AEC85FD859A
:1040300082A593A5E816F9065CF0458D4195B70178
:10404000808191810E94A707F1E0EF1AF108EECF7D
:10405000AC85BD8597968C9197978F5F97968C933B
:104060009797082E000C990BFD01ED5BFF4F208107
:104070002817190609F014F497961C92EC85FD8513
:1040800084A1F8E08F9F90011124295F3F4FD60152
:104090008C91820F932F911D0196EC85FD8525A1B2
:1040A00036A12817390709F089C91687058786C9F7
:1040B000432D60E08C859D850E94210F7FC9432D93
:1040C00061E0F8CF41E0632D8C859D850E946311EE
:1040D00075C940E0F8CF41E0632D8C859D850E9435
:1040E000AA106CC940E0F8CF432D60E08C859D8517
:1040F0000E94FF1163C9432D61E0F8CF432D60E0BA
:104100008C859D850E942C1559C9432D61E0F8CFFF
:10411000232D41E061E08C859D850E94DF134EC90F
:10412000232D40E0F7CF232D41E060E0F4CF232D95
:1041300040E0FBCF432D61E08C859D850E941613E6
:104140003DC9432D60E0F8CF41E050E06AE070E007
:104150008E819F810E940B0DEB81E1110C940A1856
:10416000EC81FD8101900020E9F73197CF012C818E
:104170003D81821B930B2D960FB6F894DEBF0FBEC8
:10418000CDBFDF91CF911F910F91FF90EF90DF9006
:10419000CF90BF90AF909F908F907F906F905F90E7
:1041A0004F903F902F900895059709F411CE53C971
:1041B0008430910510F5019708F099CE8C859D8586
:1041C0000E947405EC85FD8580A591A522A533A5E7
:1041D0008217930724F431A720A793A782A7AC8561
:1041E000BD85DC968D919C91DD97892B09F070CE71
:1041F0001E961C930E931D97E1C8059709F477CE80
:104200001DC91F920F920FB60F9211242F933F9347
:104210008F939F93AF93BF93809135019091360117
:10422000A0913701B09138013091340123E0230F80
:104230002D3758F50196A11DB11D209334018093AF
:10424000350190933601A0933701B09338018091E6
:10425000390190913A01A0913B01B0913C01019646
:10426000A11DB11D8093390190933A01A0933B01A8
:10427000B0933C01BF91AF919F918F913F912F914E
:104280000F900FBE0F901F90189526E8230F0296EF
:10429000A11DB11DD2CF789484B5826084BD84B550
:1042A000816084BD85B5826085BD85B5816085BD31
:1042B00080916E00816080936E00109281008091E9
:1042C0008100826080938100809181008160809371
:1042D0008100809180008160809380008091B10096
:1042E00084608093B1008091B00081608093B000C1
:1042F00080917A00846080937A0080917A00826055
:1043000080937A0080917A00816080937A00809116
:104310007A00806880937A001092C10080914A01EF
:10432000882309F4E0C0CFB7F89480913D01811152
:1043300024C0E4ECF5E08491E8EDF5E09491E82FF9
:10434000F0E0EE0FFF1FE055FA4FA591B491EC910C
:10435000E92321F461E08AE00E9491038AE00E944F
:1043600035038CB580618CBD8CB580648CBD8DE0CF
:104370000E9435038BE00E94350380913D018F5FE1
:1043800080933D01CFBF809149010E94350361E0D8
:10439000809149010E9491031092530110925201A1
:1043A0001092550110925401C0914D0129E0C29F15
:1043B000C00111240E944C2590934F0180934E011F
:1043C0008C2F90E0880F991F0E944C2590935101EB
:1043D0008093500180915801909159018C579040E1
:1043E00051F08CE790E0909359018093580182E45A
:1043F00091E00E94020450E040E063E070E082E45B
:1044000091E00E940B0D47E050E061E070E082E433
:1044100091E00E940B0D47E050E062E070E082E422
:1044200091E00E940B0D50E040E064E070E082E417
:1044300091E00E940B0D40914D01415060E082E4FB
:1044400091E00E94D60A50E040E070E060E082E433
:1044500091E00E940B0DC1E0C093660186E490E0FC
:104460000E944C25FC0181E090E0918380831382BF
:1044700012821482158216821782108686E090E0DE
:10448000908B878711A210A212A217A616A614AAB3
:1044900013AA15AA17AA16AAC0AF15AE14AE17AE66
:1044A00016AEDF01A05CBF4F1D921C923296F093B6
:1044B0006401E0936301C0E0D4E402E411E0809180
:1044C0006601E0916301F0916401C817A8F4CF017F
:1044D000CD9F800D911D1124FC01118300830E944A
:1044E000B005CF5FECCF809147010E9435038091EA
:1044F00048010E94350347CF813041F42091650186
:104500009FEF920F921710F413A294A3DF0190E093
:104510002AE030E0891761F018963C932E931797A4
:104520001A963C932E9319979F5FAC5BBF4FF2CFC7
:104530008823C9F0878190854AE0489F9001499F70
:10454000300D112480E094E440916601841770F4EA
:10455000DF01899FA00DB11D11241C963C932E9361
:104560001B978F5FF1CF90E080E0E6CFC0E014E4CE
:10457000D1E0409163015091640180916601C817B8
:1045800058F4CA01C19F800D911D1124FC01D6ABC6
:104590000E94B005CF5FEDCF90E084E420916601EA
:1045A000921748F4FA01989FE00DF11D1124178E1F
:1045B000168E9F5FF3CF90E084E420916601FA01AC
:1045C000921768F090E061E070E0921781F0718FCF
:1045D000608F138E128E9F5FEC5BFF4FF6CF989F1C
:1045E000E00DF11D1124178A168A9F5FE6CF90E037
:1045F00084E420916601921740F4FA01989FE00D3F
:10460000F11D1124158E9F5FF4CFC0E0D4E480919A
:1046100063019091640120916601C21748F46FE034
:10462000CD9F800D911D11240E94180DCF5FEFCFFB
:10463000C0E0D4E48091630190916401209166010F
:10464000C217C8F094E4D92EEE24E394F12C00E0D4
:1046500010E0209163013091640180E09091660147
:10466000891788F4F9018D9DE00DF11D1124F78A59
:10467000E68A8F5FF3CFCD9F800D911D11240E949C
:10468000600CCF5FD7CF6DE070E090E080E00E94DB
:104690007126EC0150E040E0009739F0188268E1A3
:1046A00071E00E943E274CE050E0BE018EE391E0B5
:1046B0000E94290D209719F0CE010E94E8250E9442
:1046C000DD032B013C0184EF882E99249394A12CC7
:1046D000B12C0E94DD036419750986099709683EAB
:1046E000734081059105A8F3F1E08F1A9108A108A4
:1046F000B10828EE420E23E0521E611C711C811489
:104700009104A104B10429F70115110509F4A1CF01
:104710000E9400009ECFEEE3F1E0138212828EE051
:1047200091E091838083118612868AE0838781E0FD
:10473000848726E231E0368725878787808F158238
:10474000148216828783108687A308950F931F9380
:10475000CF93DF938EE091E090933F0180933E01F1
:10476000C0916301D0916401209759F1FE01329705
:104770002081318144E4429FC001439F900D112468
:10478000C80FD91F80916301909164018C179D0718
:10479000A1F0C454D10989A99AA9009739F0FC0164
:1047A000048115810E94E825C801F7CF8CA99DA935
:1047B000009741F30E94E825E5CFCE0102970E94C1
:1047C000E82580914A01882399F09FB7F894809159
:1047D0003D01882319F0815080933D0180913D0176
:1047E000811105C08CB58F7B8CBD109233019FBFAA
:1047F00080914E0190914F010E94E82580915001D7
:1048000090915101DF91CF911F910F910C94E82568
:104810008F929F92AF92BF92CF92DF92EF92FF92D0
:10482000CF93DF93EC01688179818A819B81611547
:1048300071058105910521F464E279ED8BE597E03E
:104840002DE133EF41E050E00E94AC2449015A01D0
:104850009B01AC01A7EAB1E40E94CB246B017C016F
:10486000ACEEB4EFA50194010E94D924C60ED71E68
:10487000E81EF91EF7FE06C081E0C81AD108E1085B
:1048800080E8F80AC882D982EA82FB82C701B601B1
:104890009F77DF91CF91FF90EF90DF90CF90BF9007
:1048A000AF909F908F9008958F929F92AF92BF92FA
:1048B000CF92DF92EF92FF9260910001709101011F
:1048C00080910201909103016115710581059105A7
:1048D00021F464E279ED8BE597E02DE133EF41E0DF
:1048E00050E00E94AC2449015A019B01AC01A7EAA7
:1048F000B1E40E94CB246B017C01ACEEB4EFA501C6
:1049000094010E94D924C60ED71EE81EF91EF7FE98
:1049100006C081E0C81AD108E10880E8F80AC09210
:104920000001D0920101E0920201F0920301C7015F
:10493000B6019F77FF90EF90DF90CF90BF90AF9040
:104940009F908F9008956093000170930101809370
:104950000201909303010895052E97FB1EF4009425
:104960000E94C32457FD07D00E94152507FC03D0E1
:104970004EF40C94C32450954095309521953F4FAB
:104980004F4F5F4F089590958095709561957F4F3B
:104990008F4F9F4F08950E943725A59F900DB49F7C
:1049A000900DA49F800D911D11240895B7FF0C94C4
:1049B000CB240E94CB24821B930B08952F923F920D
:1049C0004F925F926F927F928F929F92AF92BF921F
:1049D000CF92DF92EF92FF920F931F93CF93DF93CB
:1049E000CDB7DEB7CA1BDB0B0FB6F894DEBF0FBE28
:1049F000CDBF09942A88398848885F846E847D8475
:104A00008C849B84AA84B984C884DF80EE80FD8076
:104A10000C811B81AA81B981CE0FD11D0FB6F894EC
:104A2000DEBF0FBECDBFED010895A1E21A2EAA1B75
:104A3000BB1BFD010DC0AA1FBB1FEE1FFF1FA2174E
:104A4000B307E407F50720F0A21BB30BE40BF50B4B
:104A5000661F771F881F991F1A9469F760957095D4
:104A6000809590959B01AC01BD01CF010895A29F57
:104A7000B001B39FC001A39F700D811D1124911D32
:104A8000B29F700D811D1124911D0895EE0FFF1F1F
:104A90000590F491E02D09940F931F93CF93DF932A
:104AA0008230910510F482E090E0E0916901F0918C
:104AB0006A0130E020E0B0E0A0E0309799F42115E1
:104AC000310509F44AC0281B390B24303105D8F5CB
:104AD0008A819B816115710589F1FB019383828332
:104AE000FE0111C04081518102811381481759078D
:104AF000E0F04817590799F4109761F012960C935B
:104B0000129713961C933296CF01DF91CF911F918C
:104B10000F9108950093690110936A01F4CF211554
:104B2000310551F04217530738F0A901DB019A0112
:104B3000BD01DF01F801C1CFEF01F9CF90936A0108
:104B400080936901CDCFFE01E20FF31F8193919312
:104B50002250310939832883D7CF209167013091C2
:104B60006801232B41F42091060130910701309315
:104B700068012093670120910401309105012115FE
:104B8000310541F42DB73EB740910801509109011C
:104B9000241B350BE0916701F0916801E217F307E0
:104BA000A0F42E1B3F0B2817390778F0AC014E5F9D
:104BB0005F4F2417350748F04E0F5F1F5093680171
:104BC00040936701819391939FCFF0E0E0E09CCF09
:104BD000CF93DF930097E9F0FC01329713821282A2
:104BE000A0916901B0916A01ED0130E020E01097D9
:104BF000A1F420813181820F931F209167013091B0
:104C000068012817390709F061C0F0936801E09343
:104C10006701DF91CF910895EA01CE17DF07E8F52C
:104C20004A815B819E0141155105B1F7E901FB8382
:104C3000EA8349915991C40FD51FEC17FD0761F420
:104C4000808191810296840F951FE9019983888361
:104C5000828193819B838A83F0E0E0E012968D91BC
:104C60009C9113970097B9F52D913C911197CD0127
:104C70000296820F931F20916701309168012817D7
:104C8000390739F6309751F510926A01109269018F
:104C9000B0936801A0936701BCCFD383C2834081E6
:104CA0005181840F951FC817D90761F44E5F5F4F7C
:104CB00088819981480F591F518340838A819B8144
:104CC000938382832115310509F0B0CFF0936A01F7
:104CD000E09369019ECFFD01DC01C0CF13821282F7
:104CE000D7CFB0E0A0E0E7E7F6E20C94E0248C0137
:104CF000009751F4CB010E944C258C01C801CDB71F
:104D0000DEB7E0E10C94FC24FC01E60FF71F9C01E8
:104D100022503109E217F30708F49DC0D901CD9163
:104D2000DC911197C617D70798F0C530D10530F33D
:104D3000CE0104978617970708F3C61BD70B229757
:104D4000C193D1936D937C93CF010E94E825D6CF78
:104D50005B01AC1ABD0A4C018C0E9D1EA09169012D
:104D6000B0916A01512C412CF12CE12C109731F5B6
:104D700080916701909168018815990509F05CC0E0
:104D80004616570608F058C080910401909105011D
:104D9000009741F48DB79EB74091080150910901E9
:104DA000841B950BE817F90708F055C0F0936801CC
:104DB000E0936701F90171836083A0CF8D919C918D
:104DC000119712966C90129713967C901397A815D2
:104DD000B90559F56C0142E0C40ED11CCA14DB04BC
:104DE00020F1AC014A195B09DA011296159780F09F
:104DF0006282738251834083D9016D937C93E11465
:104E0000F10471F0D7011396FC93EE93129776CFCD
:104E100022968C0F9D1FF90191838083F301EFCFC0
:104E2000F0936A01E093690169CF4816590608F4C6
:104E30002C017D01D3019ACFCB010E944C257C012E
:104E4000009749F0AE01B8010E942E27C8010E94C8
:104E5000E825870153CF10E000E050CFFB01DC01D3
:104E600002C001900D9241505040D8F70895DC01E6
:104E700001C06D9341505040E0F70895FB01DC0103
:104E800001900D920020E1F7089512E0C2EFD2E008
:104E900004C0FE010E9446252196C33FD107C9F7F1
:104EA000F894FFCF0100000000006B0180000000BB
:104EB00000009405290DAD05AC05A61748656C6C7E
:0A4EC0006F20776F726C6421000010
:107E0000112484B714BE81FFF0D085E080938100F7
:107E100082E08093C00088E18093C10086E0809377
:107E2000C20080E18093C4008EE0C9D0259A86E02C
:107E300020E33CEF91E0309385002093840096BBD3
:107E4000B09BFECF1D9AA8958150A9F7CC24DD24C4
:107E500088248394B5E0AB2EA1E19A2EF3E0BF2EE7
:107E6000A2D0813461F49FD0082FAFD0023811F036
:107E7000013811F484E001C083E08DD089C08234E0
:107E800011F484E103C0853419F485E0A6D080C0E4
:107E9000853579F488D0E82EFF2485D0082F10E0AE
:107EA000102F00270E291F29000F111F8ED06801E7
:107EB0006FC0863521F484E090D080E0DECF843638
:107EC00009F040C070D06FD0082F6DD080E0C81688
:107ED00080E7D80618F4F601B7BEE895C0E0D1E017
:107EE00062D089930C17E1F7F0E0CF16F0E7DF06D8
:107EF00018F0F601B7BEE89568D007B600FCFDCFD4
:107F0000A601A0E0B1E02C9130E011968C91119780
:107F100090E0982F8827822B932B1296FA010C0160
:107F200087BEE89511244E5F5F4FF1E0A038BF0790
:107F300051F7F601A7BEE89507B600FCFDCF97BE46
:107F4000E89526C08437B1F42ED02DD0F82E2BD052
:107F50003CD0F601EF2C8F010F5F1F4F84911BD097
:107F6000EA94F801C1F70894C11CD11CFA94CF0C13
:107F7000D11C0EC0853739F428D08EE10CD085E9AC
:107F80000AD08FE07ACF813511F488E018D01DD067
:107F900080E101D065CF982F8091C00085FFFCCF94
:107FA0009093C60008958091C00087FFFCCF809118
:107FB000C00084FD01C0A8958091C6000895E0E648
:107FC000F0E098E1908380830895EDDF803219F02E
:107FD00088E0F5DFFFCF84E1DECF1F93182FE3DFCA
:107FE0001150E9F7F2DF1F91089580E0E8DFEE27F6
:047FF000FF270994CA
:027FFE00040479
:00000001FF
