:020000040000FA
:100000000C945D000C9485000C9485000C94850084
:100010000C9485000C9485000C9485000C9485004C
:100020000C9485000C9485000C9485000C9485003C
:100030000C9485000C9485000C9485000C9485002C
:100040000C94EA010C9485000C9485000C948500B6
:100050000C9485000C9485000C9485000C9485000C
:100060000C9485000C94850000000008000201003B
:100070000003040700000000000000000000000072
:10008000250028002B0000000000240027002A0083
:10009000040404040404040402020202020203032E
:1000A0000303030301020408102040800102040836
:1000B00010200102040810201C0311241FBECFEFE2
:1000C000D8E0DEBFCDBF11E0A0E0B1E0E6E2F7E0AE
:1000D00002C005900D92A033B107D9F721E0A0E34B
:1000E000B1E001C01D92A139B207E1F710E0CDE502
:1000F000D0E004C02197FE010E948B03CC35D107CC
:10010000C9F70E9453020C9491030C94000090E0F4
:10011000FC01E859FF4F2491FC01EC55FF4F34914D
:10012000FC01E057FF4FE491EE23C9F0222339F0A0
:10013000233001F1A8F4213019F1223029F1F0E047
:10014000EE0FFF1FE458FF4FA591B4918FB7F894BD
:10015000EC91611126C030953E233C938FBF0895EA
:100160002730A9F02830C9F0243049F78091800069
:100170008F7D03C0809180008F7780938000DFCFD8
:1001800084B58F7784BDDBCF84B58F7DFBCF809125
:10019000B0008F778093B000D2CF8091B0008F7D78
:1001A000F9CF3E2BDACF3FB7F8948091350190918B
:1001B0003601A0913701B091380126B5A89B05C042
:1001C0002F3F19F00196A11DB11D3FBFBA2FA92FD6
:1001D000982F8827BC01CD01620F711D811D911DD3
:1001E00042E0660F771F881F991F4A95D1F708953F
:1001F0008F929F92AF92BF92CF92DF92EF92FF9237
:100200000E94D3004B015C0184EFC82EDD24D394FF
:10021000E12CF12C0E94D300681979098A099B0905
:10022000683E734081059105A8F321E0C21AD10808
:10023000E108F10888EE880E83E0981EA11CB11C2D
:10024000C114D104E104F10429F7FF90EF90DF908D
:10025000CF90BF90AF909F908F900895CF92DF92F4
:10026000EF92FF920F931F93CF93DF9300D0CDB700
:10027000DEB769834A83880F991F00918F0110911F
:100280009001000F111FE9E3F1E09F012953314074
:100290002017310714F41192F8CF2981FC01E75C93
:1002A000FE4F21838A81808360E080918D010E94CE
:1002B00087001016110604F501501109F801E75CDA
:1002C000FE4FE080D0908B01C090890188E0F82E2D
:1002D0006E2D661F6627661F8C2D0E948700EE0C10
:1002E00061E08D2D0E94870060E08D2D0E948700C7
:1002F000FA94F110EDCFDDCF61E080918D010F9088
:100300000F90DF91CF911F910F91FF90EF90DF90B1
:10031000CF900C948700EF92FF920F931F93CF938F
:100320007C018C0183E0000F111F8A95E1F7075BC8
:100330001E4FC1E0F80111928F0140E06C2FC70100
:100340000E942E01CF5FC930A9F7CF911F910F9165
:10035000FF90EF9008950F931F93CF93DF938C013D
:10036000D0E0C0E080918F019091900102978CF0D5
:10037000C830D10574F4F801EC0FFD1F4081FE0177
:10038000E75CFE4F408F6C2F6F5F81E090E00E9432
:100390002E0180918F0190919001181619068CF40E
:1003A000C830D10574F4F801EC0FFD1F4085FE0143
:1003B000E75CFE4F408B6C2F6F5F90E080E00E9407
:1003C0002E012196C031D10569F6DF91CF911F91A1
:1003D0000F9108951F920F920FB60F9211242F9331
:1003E0003F938F939F93AF93BF93809131019091EF
:1003F0003201A0913301B09134013091300123E0FA
:10040000230F2D3758F50196A11DB11D2093300102
:100410008093310190933201A0933301B093340162
:100420008091350190913601A0913701B09138014A
:100430000196A11DB11D8093350190933601A093C3
:100440003701B0933801BF91AF919F918F913F9148
:100450002F910F900FBE0F901F90189526E8230F35
:100460000296A11DB11DD2CF90E0FC01EC55FF4FCB
:10047000249180579F4FFC018491882399F090E04C
:10048000880F991FFC01EA57FF4FA591B491FC0119
:10049000E458FF4F859194918FB7F894EC91E22B3B
:1004A000EC938FBF0895CF93DF93CDB7DEB7E0977E
:1004B0000FB6F894DEBF0FBECDBF789484B58260CE
:1004C00084BD84B5816084BD85B5826085BD85B5F8
:1004D000816085BD80916E00816080936E00109276
:1004E00081008091810082608093810080918100F1
:1004F0008160809381008091800081608093800082
:100500008091B10084608093B1008091B0008160DF
:100510008093B00080917A00846080937A0080910B
:100520007A00826080937A0080917A008160809363
:100530007A0080917A00806880937A001092C100DE
:1005400080918F01909190011816190634F441E0C2
:100550006CE090E080E00E942E0180918F019091EC
:100560009001029734F041E06CE081E090E00E945D
:100570002E0180918F01909190011816190634F484
:1005800048E06AE090E080E00E942E0180918F01B7
:1005900090919001029734F048E06AE081E090E0A9
:1005A0000E942E0180918F019091900118161906DA
:1005B00024F490E080E00E948B0180918F01909163
:1005C0009001029724F081E090E00E948B0100E00E
:1005D00010E080E1E0E0F1E0DE01919601900D9203
:1005E0008A95E1F780E1E0E1F1E0DE0151960190CA
:1005F0000D928A95E1F780E1E0E2F1E0DE011196EB
:1006000001900D928A95E1F7CE0181960E94AB018F
:100610000E94F800CE0141960E94AB010E94F800B2
:10062000CE0101960E94AB010E94F8000115110550
:1006300081F20E940000CDCFCF93DF93CBE0D0E0DA
:10064000D0938A01C09389018DE090E090938C0152
:1006500080938B018AE090E090938E0180938D01CE
:1006600082E090E09093900180938F018BE00E9454
:10067000340280918B010E94340280918D010E948E
:10068000340261E080918D010E948700D0938A013D
:10069000C0938901E9E4F1E0119281E0E938F807BB
:1006A000D9F7D0E0C0E080918F0190919001C817F8
:1006B000D90774F540E06FE0CE010E942E018091D1
:1006C0008F0190919001C817D9072CF447E06BE097
:1006D000CE010E942E0140E069E0CE010E942E0171
:1006E00080918F0190919001C817D9071CF4CE0119
:1006F0000E948B0180918F0190919001C817D907BA
:100700002CF440E06CE0CE010E942E012196CBCF6C
:10071000DF91CF910895EE0FFF1F0590F491E02D2A
:100720000994F894FFCF3C42A581A599423C00660C
:100730009981814224183C42A581BD81423C000040
:10074000665A422418003C42A58199A5423C00000B
:06075000243C2418000007
:107E0000112484B714BE81FFF0D085E080938100F7
:107E100082E08093C00088E18093C10086E0809377
:107E2000C20080E18093C4008EE0C9D0259A86E02C
:107E300020E33CEF91E0309385002093840096BBD3
:107E4000B09BFECF1D9AA8958150A9F7CC24DD24C4
:107E500088248394B5E0AB2EA1E19A2EF3E0BF2EE7
:107E6000A2D0813461F49FD0082FAFD0023811F036
:107E7000013811F484E001C083E08DD089C08234E0
:107E800011F484E103C0853419F485E0A6D080C0E4
:107E9000853579F488D0E82EFF2485D0082F10E0AE
:107EA000102F00270E291F29000F111F8ED06801E7
:107EB0006FC0863521F484E090D080E0DECF843638
:107EC00009F040C070D06FD0082F6DD080E0C81688
:107ED00080E7D80618F4F601B7BEE895C0E0D1E017
:107EE00062D089930C17E1F7F0E0CF16F0E7DF06D8
:107EF00018F0F601B7BEE89568D007B600FCFDCFD4
:107F0000A601A0E0B1E02C9130E011968C91119780
:107F100090E0982F8827822B932B1296FA010C0160
:107F200087BEE89511244E5F5F4FF1E0A038BF0790
:107F300051F7F601A7BEE89507B600FCFDCF97BE46
:107F4000E89526C08437B1F42ED02DD0F82E2BD052
:107F50003CD0F601EF2C8F010F5F1F4F84911BD097
:107F6000EA94F801C1F70894C11CD11CFA94CF0C13
:107F7000D11C0EC0853739F428D08EE10CD085E9AC
:107F80000AD08FE07ACF813511F488E018D01DD067
:107F900080E101D065CF982F8091C00085FFFCCF94
:107FA0009093C60008958091C00087FFFCCF809118
:107FB000C00084FD01C0A8958091C6000895E0E648
:107FC000F0E098E1908380830895EDDF803219F02E
:107FD00088E0F5DFFFCF84E1DECF1F93182FE3DFCA
:107FE0001150E9F7F2DF1F91089580E0E8DFEE27F6
:047FF000FF270994CA
:027FFE00040479
:00000001FF
