:020000040000FA
:100000000C9472000C949A000C949A000C949A0030
:100010000C949A000C949A000C949A000C949A00F8
:100020000C949A000C949A000C949A000C949A00E8
:100030000C949A000C949A000C949A000C949A00D8
:100040000C94A4040C949A000C949A000C949A00BA
:100050000C949A000C949A000C949A000C949A00B8
:100060000C949A000C949A000000000023002600D3
:100070002900005EBCE2613FDD83C29C7E20A3FDBF
:100080001F41009D23BE46DB65F88C11AF32CA5775
:10009000E97400000000240027002A00000000008E
:1000A000250028002B0004040404040404040202B4
:1000B00002020202030303030303010204081020E7
:1000C00040800102040810200102040810200000F2
:1000D0000008000201000003040700000000000007
:1000E0000000BD0611241FBECFEFD8E0DEBFCDBF9C
:1000F00011E0A0E0B1E0E2EBF1E102C005900D9269
:10010000A635B107D9F721E0A6E5B1E001C01D92FF
:10011000AC3DB207E1F710E0C2E7D0E004C02197A0
:10012000FE010E94D108C137D107C9F70E941F05FF
:100130000C94D7080C94000090E0FC01E253FF4FB0
:100140002491FC01E654FF4F3491FC01EA55FF4F26
:10015000E491EE23C9F0222339F0233001F1A8F411
:10016000213019F1223029F1F0E0EE0FFF1FE456A3
:10017000FF4FA591B4918FB7F894EC91611126C00F
:1001800030953E233C938FBF08952730A9F0283047
:10019000C9F0243049F7809180008F7D03C08091A1
:1001A00080008F7780938000DFCF84B58F7784BD08
:1001B000DBCF84B58F7DFBCF8091B0008F778093AC
:1001C000B000D2CF8091B0008F7DF9CF3E2BDACF37
:1001D0003FB7F8948091650190916601A091670105
:1001E000B091680126B5A89B05C02F3F19F0019674
:1001F000A11DB11D3FBFBA2FA92F982F8827BC0181
:10020000CD01620F711D811D911D42E0660F771FA8
:10021000881F991F4A95D1F708958F929F92AF92A8
:10022000BF92CF92DF92EF92FF926B017C010E940E
:10023000E8004B015C01C114D104E104F104B9F000
:100240000E94E800681979098A099B09683E734091
:100250008105910580F321E0C21AD108E108F10877
:1002600088EE880E83E0981EA11CB11CE4CFFF909D
:10027000EF90DF90CF90BF90AF909F908F900895B8
:10028000DC0180E0615090F09D919827E92FEF709C
:10029000F0E0EE58FF4F2491E92FE295EF70F0E087
:1002A000EE57FF4FE491822F8E27ECCF0895DC01AB
:1002B0002C911196ED91FC91F8948181822B818390
:1002C0009281322F30959323928387E090E00197BB
:1002D000F1F781818323818383E290E00197F1F735
:1002E00090817894EFECF0E03197F1F7922381E080
:1002F00009F480E00895FC0190810180F281E02DF5
:10030000292F209560FF14C0F89482818223828374
:100310008181892B8183A3E2B0E01197F1F782817B
:10032000982B9283789487ED90E00197F1F70895E8
:10033000F8948281822382838181892B8183AFEF2C
:10034000B0E01197F1F78281982B928378948FE037
:1003500090E0EBCFDF92EF92FF920F931F93CF933A
:10036000DF93EC01D62EE42E08E010E0FF24F39496
:1003700061E08D2D8F2109F460E0CE010E947B01A8
:10038000FF0C01501109A1F7E11010C0F894E981A8
:10039000FA8191818881809589238183E981FA811D
:1003A000928188818095892382837894DF91CF918F
:1003B0001F910F91FF90EF90DF900895EF92FF92C1
:1003C0000F931F93CF93DF938C017B0140E065E592
:1003D0000E94AA01E70188E0E80EF11C699140E063
:1003E000C8010E94AA01CE15DF05C1F7DF91CF91A8
:1003F0001F910F91FF90EF900895FC019081018073
:10040000F281E02DF8948181292F20958223818328
:1004100078943DE743E050E0315029F1DA0111973B
:10042000F1F780818923C1F3F8948281822382834A
:100430008181892B81837894ABE7B7E01197F1F73D
:10044000F894818182238183A3E1B1E01197F1F7D0
:100450008081982381E009F080E07894E3E6F6E07B
:100460003197F1F7089580E008956F927F928F920F
:100470009F92AF92BF92CF92DF92EF92FF920F9333
:100480001F93CF93DF938C01EB01809176019091C4
:1004900077010E94FD01882309F43FC0B8018091D3
:1004A0007601909177010E94DE0140E06EEB809131
:1004B0007601909177010E94AA017E016E0189E088
:1004C000C80ED11C8E01A0907601B090770188E013
:1004D000882E912C712C66246394C5010E945701CB
:1004E00081117628660CE1E08E1A9108B1F7F801C7
:1004F00071928F01CE16DF0631F7809176019091CF
:1005000077010E94FD01813041F4F70181917F0163
:10051000811105C0E017F107C1F790E008C068E05D
:10052000CE010E94400191E028852813F6CF892F43
:10053000DF91CF911F910F91FF90EF90DF90CF90BF
:10054000BF90AF909F908F907F906F900895CF92C3
:10055000DF92EF92FF9280917601909177010E9455
:10056000FD0140E06CEC80917601909177010E9452
:10057000AA0140916D0164E4809176019091770128
:100580000E94AA0180917101882389F1E091700194
:1005900080917201882381F180916D0181112CC0BD
:1005A0008FB7F894C0906901D0906A01E0906B0118
:1005B000F0906C018FBF80917601909177010E943D
:1005C00057018130A1F02FB7F89480916901909183
:1005D0006A01A0916B01B0916C012FBF8C199D092C
:1005E000AE09BF098E3E9240A105B10520F3FF90F0
:1005F000EF90DF90CF900895E9508EEE92E0E330D7
:1006000038F4F0E0EE0FFF1FE05BFE4F8081918138
:100610006C01990FEE08FF0880916E01882329F084
:1006200060E080916F010E949C00C701B6010E94AA
:100630000D0180916E018823D1F261E080916F01FC
:10064000FF90EF90DF90CF900C949C00CF92DF92C0
:10065000EF92FF920F931F93CF93DF9300D0CDB70C
:10066000DEB769834A83880F991F0091DA011091E0
:10067000DB01000F111FE4E8F1E09F012458314035
:100680002017310714F41192F8CF2981FC01EC579F
:10069000FE4F21838A81808360E08091D8010E948F
:1006A0009C001016110604F501501109F801EC57D1
:1006B000FE4FE080D090D601C090D40188E0F82EA3
:1006C0006E2D661F6627661F8C2D0E949C00EE0C07
:1006D00061E08D2D0E949C0060E08D2D0E949C00A9
:1006E000FA94F110EDCFDDCF61E08091D8010F9049
:1006F0000F90DF91CF911F910F91FF90EF90DF90BE
:10070000CF900C949C00EF92FF920F931F93CF9386
:100710007C018C0183E0000F111F8A95E1F70C56D4
:100720001E4FC1E0F80111928F0140E06C2FC7010C
:100730000E942603CF5FC930A9F7CF911F910F9177
:10074000FF90EF900895BF92CF92DF92EF92FF92C9
:100750000F931F93CF93DF93EC01B62EC72E8D8599
:10076000811105C0CE010E94FD0181110EC01B86C2
:100770001D861C8680E0DF91CF911F910F91FF9025
:10078000EF90DF90CF90BF90089540E060EFCE01F2
:100790000E94AA0101E0E12CD12C11E0CE010E94BF
:1007A0005701F82ECE010E94570191E0F91218C0AE
:1007B000813099F51134D8F2DB86D11002C081E086
:1007C0008D878B81882399F22396EB2DFC2DCF0109
:1007D000089629912193E817F907D9F781E0CBCF43
:1007E000EE2DF0E0F8120FC08B851817A0F4DE0193
:1007F000AE0FBF1F13968C91802379F4F12C193022
:1008000008F41C87D12EEC0FFD1F8381902F90954B
:10081000892383830AC08113F1CFFE01EE0DF11D00
:100820008381802B8383FF24F3946F2DCE010E945C
:100830007B011F5F000F11F4E39401E087E08E1548
:1008400008F0ACCFB7CFCF93DF93CDB7DEB76197CA
:100850000FB6F894DEBF0FBECDBFE0917601F091E8
:1008600077011386158614861286118610861782E4
:100870001682158214821382BE01665F7F4F8091BB
:100880007601909177010E94A30381110DC060E071
:1008900070E08EEF92EC61960FB6F894DEBF0FBE5B
:1008A000CDBFDF91CF91089567E0CE010A960E94F7
:1008B000400199898913EBCFBE016F5F7F4FCE0155
:1008C0000A960E943502882311F36A8170E0762F20
:1008D0006627770F770F770F298148E0249F9001D3
:1008E0001124262B372B8A858031E1F46885662315
:1008F000C9F070E08F81AB01481B5109CA01969580
:10090000982F8827979587950E94A908CB018097F3
:10091000B90153E0660F771F5A95E1F760789C01A3
:10092000260F371F213854EE35070CF4B0CFB9012C
:10093000330F880B990B0E94B00720E030E040E0B5
:100940005CE30E941408A7CF1F920F920FB60F927C
:1009500011242F933F938F939F93AF93BF938091D5
:10096000690190916A01A0916B01B0916C01309185
:10097000640123E0230F2D3758F50196A11DB11D09
:10098000209364018093690190936A01A0936B01A5
:10099000B0936C018091650190916601A09167010F
:1009A000B09168010196A11DB11D809365019093DE
:1009B0006601A0936701B0936801BF91AF919F91C9
:1009C0008F913F912F910F900FBE0F901F90189510
:1009D00026E8230F0296A11DB11DD2CFCF93DF933E
:1009E00090E0FC01E654FF4F24918A559F4FFC0193
:1009F00084918823D1F090E0880F991FFC01EE5676
:100A0000FF4FA591B491FC01E456FF4FC591D491DD
:100A100061110EC09FB7F8948C91E22FE0958E2360
:100A20008C932881E223E8839FBFDF91CF910895C3
:100A30008FB7F894EC91E22BEC938FBFF6CFCF9366
:100A4000DF93CDB7DEB761970FB6F894DEBF0FBE68
:100A5000CDBF789484B5826084BD84B5816084BD47
:100A600085B5826085BD85B5816085BD80916E004C
:100A7000816080936E00109281008091810082607D
:100A800080938100809181008160809381008091BA
:100A900080008160809380008091B10084608093A9
:100AA000B1008091B00081608093B00080917A00A5
:100AB000846080937A0080917A00826080937A00CB
:100AC00080917A00816080937A0080917A008068BA
:100AD00080937A001092C100E0917601F091770145
:100AE0001386158614861286118610861782168242
:100AF000158214821382109274011092750111E014
:100B0000BE01665F7F4F80917601909177010E94D0
:100B1000A303882309F475C067E0CE010A960E94FA
:100B2000400199898913ECCF809174018F5F809384
:100B300074018A85883231F008F049C0803111F0A3
:100B40008232F1F6809175018F5F809375018091FB
:100B50006D01811128C080917601909177010E94EA
:100B6000FD01BE01665F7F4F809176019091770114
:100B70000E94DE0140E064EB809176019091770164
:100B80000E94AA0180917601909177010E945701FD
:100B9000082F80917601909177010E94FD0101114B
:100BA00002C010936D018A858031E1F0BE016F5F54
:100BB0007F4FCE010A960E943502882331F08D8145
:100BC0008F33D9F058F48F31D1F080E00EC08B33E1
:100BD00009F4B8CF823409F093CFB4CF8F3521F028
:100BE0008F3799F78CE001C08BE0909170019817D6
:100BF00008F086CF8093700183CF8AE0F6CF89E03A
:100C0000F4CF8091DA019091DB011816190634F4C3
:100C100041E06CE090E080E00E9426038091DA01E0
:100C20009091DB01029734F041E06CE081E090E0CC
:100C30000E9426038091DA019091DB0118161906B3
:100C400034F44FE06AE090E080E00E942603809157
:100C5000DA019091DB01029734F04FE06AE081E025
:100C600090E00E9426038091DA019091DB01181632
:100C7000190624F490E080E00E9483038091DA0159
:100C80009091DB01029724F081E090E00E948303C1
:100C90002AE0822E912C30E0632E30E0732E0E94E9
:100CA000A7020E9423040E9478077B0164E670E09B
:100CB00080E090E00E940D01C701B4010E94A908E4
:100CC0005C0183E0AA0CBB1C8A95E1F7CB01B4015F
:100CD0000E94A9086C0193E0CC0CDD1C9A95E1F709
:100CE00081E8E8168FEFF80609F440C00E94A702D9
:100CF0000E94230410E000E08091DA019091DB0172
:100D00001816190684F4F801EA0DFB1DE050FF4F98
:100D10004081F801EC57FE4F408B61E0600F90E09E
:100D200080E00E9426030F5F1F4F0830110521F756
:100D300010E000E08091DA019091DB01029784F0ED
:100D4000F801EC0DFD1DE050FF4F4081F801EC571C
:100D5000FE4F408F61E0600F81E090E00E9426032B
:100D60000F5F1F4F0830110529F7BACF61147104C6
:100D700009F495CF0E94000092CFCF93DF93CBE090
:100D8000D0E0D093D501C093D4018DE090E0909352
:100D9000D7018093D6018AE090E09093D9018093A7
:100DA000D80182E090E09093DB018093DA0161E06A
:100DB0008BE00E94EE0461E08091D6010E94EE0477
:100DC00061E08091D8010E94EE0461E08091D80139
:100DD0000E949C00D093D501C093D401E4E9F1E0D6
:100DE000119281E0E43DF807D9F7D0E0C0E08091AE
:100DF000DA019091DB01C817D90774F540E06FE084
:100E0000CE010E9426038091DA019091DB01C81780
:100E1000D9072CF447E06BE0CE010E94260340E0A6
:100E200069E0CE010E9426038091DA019091DB01F6
:100E3000C817D9071CF4CE010E9483038091DA0100
:100E40009091DB01C817D9072CF440E06CE0CE018B
:100E50000E9426032196CBCF60E088E00E94EE043A
:100E6000E2ECF0E0E491E0935601EEEAF0E0E49188
:100E7000F0E0EE0FFF1FE859FF4F8591949190939A
:100E800058018093570110926101109263011092F2
:100E900062011092600110925F0110925E01109247
:100EA0005D0110925C0110925B0110925A01109248
:100EB0005901109283011092820110926E0186E511
:100EC00091E09093770180937601109274011092D3
:100ED000750110926D0189E08093700181E080932B
:100EE00071018093720180937301DF91CF91089516
:100EF0000E947F076894B1110C940E0808950E9417
:100F0000F30788F09F5798F0B92F9927B751B0F0A1
:100F1000E1F0660F771F881F991F1AF0BA95C9F77D
:100F200014C0B13091F00E940D08B1E008950C9406
:100F30000D08672F782F8827B85F39F0B93FCCF3B9
:100F4000869577956795B395D9F73EF490958095FA
:100F5000709561957F4F8F4F9F4F0895E89409C01A
:100F600097FB3EF490958095709561957F4F8F4FDC
:100F70009F4F9923A9F0F92F96E9BB279395F695F2
:100F8000879577956795B795F111F8CFFAF4BB0F70
:100F900011F460FF1BC06F5F7F4F8F4F9F4F16C0D4
:100FA000882311F096E911C0772321F09EE8872F5E
:100FB000762F05C0662371F096E8862F70E060E01A
:100FC0002AF09A95660F771F881FDAF7880F969593
:100FD000879597F9089557FD9058440F551F59F07C
:100FE0005F3F71F04795880F97FB991F61F09F3F16
:100FF00079F087950895121613061406551FF2CF3F
:101000004695F1DF08C0161617061806991FF1CF8E
:1010100086957105610508940895E894BB276627B5
:101020007727CB0197F908950E9427080C94980818
:101030000E948A0838F00E94910820F0952311F050
:101040000C9481080C94870811240C940E080E94BB
:10105000EB0770F3959FC1F3950F50E0551F629F0A
:10106000F001729FBB27F00DB11D639FAA27F00D01
:10107000B11DAA1F649F6627B00DA11D661F829F28
:101080002227B00DA11D621F739FB00DA11D621F0D
:10109000839FA00D611D221F749F3327A00D611D2A
:1010A000231F849F600D211D822F762F6A2F11240C
:1010B0009F5750409AF0F1F088234AF0EE0FFF1F3F
:1010C000BB1F661F771F881F91505040A9F79E3F96
:1010D000510580F00C9481080C940E085F3FE4F3F6
:1010E000983ED4F3869577956795B795F795E795EC
:1010F0009F5FC1F7FE2B880F911D9695879597F9F5
:10110000089597F99F6780E870E060E008959FEF89
:1011100080EC089500240A9416161706180609068E
:10112000089500240A94121613061406050608955D
:10113000092E0394000C11F4882352F0BB0F40F4E5
:10114000BF2B11F460FF04C06F5F7F4F8F4F9F4F25
:10115000089597FB072E16F4009407D077FD09D069
:101160000E94BD0807FC05D03EF4909581959F4FE5
:101170000895709561957F4F0895AA1BBB1B51E19F
:1011800007C0AA1FBB1FA617B70710F0A61BB70BF7
:10119000881F991F5A95A9F780959095BC01CD019C
:1011A0000895EE0FFF1F0590F491E02D0994F89437
:1011B000FFCF3C4242424242423C1C3C6CCC0C0CB5
:1011C0000C0C3E7EC6860C183F7F7EC6861818869D
:1011D000C67E183060CCFFFF0C0C7E4040407E0283
:1011E000027E1E2040407C42423CFFFF060C7E30C7
:1011F00060C07E42427E7E42427E7E42427E02024B
:08120000027E5E00BC007701D4
:107E0000112484B714BE81FFF0D085E080938100F7
:107E100082E08093C00088E18093C10086E0809377
:107E2000C20080E18093C4008EE0C9D0259A86E02C
:107E300020E33CEF91E0309385002093840096BBD3
:107E4000B09BFECF1D9AA8958150A9F7CC24DD24C4
:107E500088248394B5E0AB2EA1E19A2EF3E0BF2EE7
:107E6000A2D0813461F49FD0082FAFD0023811F036
:107E7000013811F484E001C083E08DD089C08234E0
:107E800011F484E103C0853419F485E0A6D080C0E4
:107E9000853579F488D0E82EFF2485D0082F10E0AE
:107EA000102F00270E291F29000F111F8ED06801E7
:107EB0006FC0863521F484E090D080E0DECF843638
:107EC00009F040C070D06FD0082F6DD080E0C81688
:107ED00080E7D80618F4F601B7BEE895C0E0D1E017
:107EE00062D089930C17E1F7F0E0CF16F0E7DF06D8
:107EF00018F0F601B7BEE89568D007B600FCFDCFD4
:107F0000A601A0E0B1E02C9130E011968C91119780
:107F100090E0982F8827822B932B1296FA010C0160
:107F200087BEE89511244E5F5F4FF1E0A038BF0790
:107F300051F7F601A7BEE89507B600FCFDCF97BE46
:107F4000E89526C08437B1F42ED02DD0F82E2BD052
:107F50003CD0F601EF2C8F010F5F1F4F84911BD097
:107F6000EA94F801C1F70894C11CD11CFA94CF0C13
:107F7000D11C0EC0853739F428D08EE10CD085E9AC
:107F80000AD08FE07ACF813511F488E018D01DD067
:107F900080E101D065CF982F8091C00085FFFCCF94
:107FA0009093C60008958091C00087FFFCCF809118
:107FB000C00084FD01C0A8958091C6000895E0E648
:107FC000F0E098E1908380830895EDDF803219F02E
:107FD00088E0F5DFFFCF84E1DECF1F93182FE3DFCA
:107FE0001150E9F7F2DF1F91089580E0E8DFEE27F6
:047FF000FF270994CA
:027FFE00040479
:00000001FF
