:020000040000FA
:100000000C9462000C947F000C947F000C947F0091
:100010000C947F000C947F000C947F000C945A0188
:100020000C947F000C947F000C947F000C947F0054
:100030000C947F000C947F000C947F000C947F0044
:100040000C94B6010C947F000C947F000C947F00FC
:100050000C947F000C947F000C947F000C947F0024
:100060000C947F000C947F00000000002400270007
:100070002A000000000023002600290000000008DC
:10008000000201000003040700000000000000005F
:10009000010204081020408001020408102001021F
:1000A0000408102000000000250028002B00040494
:1000B0000404040404040202020202020303030310
:1000C0000303020011241FBECFEFD8E0DEBFCDBF77
:1000D00011E0A0E0B1E0ECEEFAE002C005900D9274
:1000E000A232B107D9F721E0A2E2B1E001C01D922E
:1000F000AC33B207E1F70E9400020C9474050C9433
:100100000000833081F028F4813099F08230A9F02A
:1001100008958730A9F08830C9F08430B1F4809117
:1001200080008F7D03C0809180008F778093800056
:10013000089584B58F7784BD089584B58F7DFBCFF6
:100140008091B0008F778093B00008958091B000C7
:100150008F7DF9CF1F93CF93DF93282F30E0F901E4
:10016000E458FF4F8491F901E057FF4FD491F90112
:10017000E255FF4FC491CC23A9F0162F81110E94A4
:100180008100EC2FF0E0EE0FFF1FEC55FF4FA59123
:10019000B4918FB7F894EC91111108C0D095DE237B
:1001A000DC938FBFDF91CF911F910895DE2BF8CFA5
:1001B0009091000189130BC0E2ECF0E0E4919FEF15
:1001C00090930001E13049F028F0E23061F060E006
:1001D0000C94AA0010926E00FACF90916F009D7F50
:1001E00090936F00F4CF909170009D7F909370007A
:1001F00091E09093B0009091B100987F94609093BB
:10020000B1001092B300E3CFCF93DF9390E0FC01F5
:10021000E057FF4F249182559F4FFC018491882322
:10022000D1F090E0880F991FFC01E859FF4FA5918C
:10023000B491FC01EC55FF4FC591D491623071F43B
:100240009FB7F8943C91822F809583238C93E8810B
:100250002E2B28839FBFDF91CF9108958FB7F894FD
:10026000EC912E2B2C938FBFF6CF3FB7F894809153
:10027000270190912801A0912901B0912A0126B56A
:10028000A89B05C02F3F19F00196A11DB11D3FBFCE
:10029000BA2FA92F982F8827BC01CD01620F711D9D
:1002A000811D911D42E0660F771F881F991F4A9597
:1002B000D1F708951F920F920FB60F9211242F932A
:1002C0003F934F935F936F937F938F939F93AF93DE
:1002D000BF93EF93FF938091300190913101A091F2
:1002E0003201B0913301892B8A2B8B2BD1F1909164
:1002F0002B01E0912C01F0912D01808189278083D1
:100300008091300190913101A0913201B09133017F
:10031000181619061A061B069CF48091300190915C
:100320003101A0913201B09133010197A109B109C6
:100330008093300190933101A0933201B093330147
:10034000FF91EF91BF91AF919F918F917F916F91AD
:100350005F914F913F912F910F900FBE0F901F9083
:100360001895809100010E94D800EACF1F920F9249
:100370000FB60F9211242F933F938F939F93AF93B8
:10038000BF938091230190912401A0912501B09108
:1003900026013091220123E0230F2D3758F50196D5
:1003A000A11DB11D2093220180932301909324016C
:1003B000A0932501B09326018091270190912801F7
:1003C000A0912901B0912A010196A11DB11D809330
:1003D000270190932801A0932901B0932A01BF918E
:1003E000AF919F918F913F912F910F900FBE0F90E2
:1003F0001F90189526E8230F0296A11DB11DD2CF9C
:10040000CF93DF93CDB7DEB729970FB6F894DEBF51
:100410000FBECDBF789484B5826084BD84B5816001
:1004200084BD85B5826085BD85B5816085BD8091BF
:100430006E00816080936E00109281008091810037
:10044000826080938100809181008160809381002F
:10045000809180008160809380008091B1008460F1
:100460008093B1008091B00081608093B000809152
:100470007A00846080937A0080917A008260809311
:100480007A0080917A00816080937A0080917A006E
:10049000806880937A001092C10062E084E00E943C
:1004A000040161E087E00E940401E0E8F0E084914B
:1004B000E4E9F0E024912983E2EBF0E014911123C8
:1004C000D1F081110E948100E12FF0E0EE0FFF1FBB
:1004D000EE58FF4FA591B491EC9189818E2359F08C
:1004E00060E087E00E94AA0080E090E0892BE9F2BA
:1004F0000E940000DACF61E087E00E94AA00E1E1FB
:10050000F1E0FA83E98381E091E098878F83E981C4
:10051000FA8161917191FA83E98388EE93E00E94F8
:10052000F5048B012B01770F66087708EF81F885BA
:1005300021903190F887EF83809100018B3009F092
:100540007CC0E2ECF0E0F491F987F7FD61C161E075
:100550008BE00E940401F985FF2321F029852230D8
:1005600009F079C14101B12CA12C60E072E18AE768
:1005700090E0A50191010E942B052B833C834D83C4
:100580005E8369017A0181E0C81AD108E108F108A7
:100590009FEFC916D104E104F10409F00CF410C175
:1005A00060E472E48FE090E0A50191010E942B05C8
:1005B00069017A01E1E0CE1AD108E108F108F98574
:1005C000F23009F0B1C082E02FEFC216D104E1048D
:1005D000F10409F00CF402C260E970ED83E090E0F0
:1005E000A50191010E942B0569017A0181E0C81AD9
:1005F000D108E108F10883E09FEFC916D104E104B6
:10060000F10409F00CF4EAC168E478EE81E090E0CE
:10061000A50191010E942B0569017A01F1E0CF1A31
:10062000D108E108F1082FEFC216D104E104F1046A
:1006300011F00CF09DC084E0D1C18F3F09F0E8C0FB
:100640008BE080930001E2ECF0E0F491F987FF3F4A
:1006500009F4DEC0F13031F158F0F23009F441C054
:10066000F985F7FDD5C061E08BE00E94040176CFEB
:1006700014BC15BC84B5826084BD85B5816085BD20
:10068000E9EBF0E08491E82FF0E0EE0FFF1FEC556E
:10069000FF4F85919491EBE9F0E0849180932F01D5
:1006A000198655CF109280001092810080918100B0
:1006B00088608093810080918100816080938100B7
:1006C000E9EBF0E08491E82FF0E0EE0FFF1FEC552E
:1006D000FF4F85919491EBE9F0E0849180932E0196
:1006E00036CF1092B0001092B1008091B0008260BD
:1006F0008093B0008091B10081608093B100E9EBFC
:10070000F0E08491E82FF0E0EE0FFF1FEC55FF4F73
:100710008591949190932D0180932C01EBE9F0E069
:10072000849180932B0113CFEFEFCE16D104E10417
:10073000F10409F00CF48DC068E478EE81E090E0FB
:10074000A50191010E942B0569017A01F1E0CF1A00
:10075000D108E108F1082985222309F40BC1EFEF44
:10076000CE16D104E104F10411F00CF00CC163CFFA
:1007700064E274EF80E090E0A50194010E942B05F3
:1007800069017A0181E0C81AD108E108F10885E021
:100790009FEFC916D104E104F10409F008F41EC169
:1007A00062E17AE780E090E0A50194010E942B05C8
:1007B00069017A0181E0C81AD108E108F108F5C0A1
:1007C00081E0298521110AC195B5987F892B85BDC6
:1007D0002FEF3FEFA901411451046104710409F0A6
:1007E00064C08985813009F47EC0823009F48DC0EF
:1007F00081110EC0C7BC209338013093390140935A
:100800003A0150933B0180916E00826080936E00AC
:100810000E9435016B017C01411451046104710493
:1008200009F483C00E9435016C197D098E099F0966
:10083000683E73408105910578F391E0491A5108AB
:1008400061087108E8EECE0EE3E0DE1EE11CF11C4B
:10085000E3CF82E0B6CFB12CA12C60E072E18AE751
:1008600090E0A50191010E942B0569017A0181E0C8
:10087000C81AD108E108F108C114D10491E0E906D1
:10088000F10404F591E0F985F13009F0A1CF8091F0
:100890008100887F892B809381002FEF3FEFA90192
:1008A0004114510461047104F1F09101220F331FCE
:1008B000D8010E944A0528EE33E040E050E00E9453
:1008C00009058FCF68E478EE81E090E0A501910101
:1008D0000E942B0569017A01E1E0CE1AD108E108F6
:1008E000F10893E0D0CFD0928900C0928800209385
:1008F0003401309335014093360150933701809194
:100900006F00826080936F0083CFC092B30020930A
:100910003001309331014093320150933301809183
:10092000700082608093700073CF8BE00E94D800CB
:1009300089819A818152914009F0E9CDD5CDCB8052
:10094000DC80ED80FE809AE0F594E794D794C7941C
:100950009A95D1F721E0C21AD108E108F10885E0A3
:1009600033CF8FEFC816D104E104F10409F038F752
:1009700084E02ACF83E09FEFC916D104E104F1049B
:1009800009F00CF421CF62E17AE780E090E0A50164
:1009900094010E942B0569017A01E1E0CE1AD10889
:1009A000E108F108F985FF23E1F286E0EFEFCE16CA
:1009B000D104E104F10491F088F0CB80DC80ED807B
:1009C000FE808AE0F594E794D794C7948A95D1F78E
:1009D00091E0C91AD108E108F10887E09091B100CF
:1009E000987F892B8093B100F3CE97FB072E16F4E6
:1009F000009407D077FD09D00E94510507FC05D06F
:100A00003EF4909581959F4F0895709561957F4F25
:100A10000895A1E21A2EAA1BBB1BFD010DC0AA1F3F
:100A2000BB1FEE1FFF1FA217B307E407F50720F057
:100A3000A21BB30BE40BF50B661F771F881F991FD2
:100A40001A9469F760957095809590959B01AC011B
:100A5000BD01CF010895052E97FB1EF400940E945E
:100A6000420557FD07D00E94090507FC03D04EF44C
:100A70000C94420550954095309521953F4F4F4F2E
:100A80005F4F089590958095709561957F4F8F4F3A
:100A90009F4F08950E946505B7FF0895821B930B31
:100AA0000895AA1BBB1B51E107C0AA1FBB1FA617B5
:100AB000B70710F0A61BB70B881F991F5A95A9F707
:100AC00080959095BC01CD010895A29FB001B39F80
:100AD000C001A39F700D811D1124911DB29F700D47
:100AE000811D1124911D0895F894FFCFFF0601C4C4
:100AF00000C400DC00C4000000F700060102000290
:0E0B00000004000400060006000800080000C3
:107E0000112484B714BE81FFF0D085E080938100F7
:107E100082E08093C00088E18093C10086E0809377
:107E2000C20080E18093C4008EE0C9D0259A86E02C
:107E300020E33CEF91E0309385002093840096BBD3
:107E4000B09BFECF1D9AA8958150A9F7CC24DD24C4
:107E500088248394B5E0AB2EA1E19A2EF3E0BF2EE7
:107E6000A2D0813461F49FD0082FAFD0023811F036
:107E7000013811F484E001C083E08DD089C08234E0
:107E800011F484E103C0853419F485E0A6D080C0E4
:107E9000853579F488D0E82EFF2485D0082F10E0AE
:107EA000102F00270E291F29000F111F8ED06801E7
:107EB0006FC0863521F484E090D080E0DECF843638
:107EC00009F040C070D06FD0082F6DD080E0C81688
:107ED00080E7D80618F4F601B7BEE895C0E0D1E017
:107EE00062D089930C17E1F7F0E0CF16F0E7DF06D8
:107EF00018F0F601B7BEE89568D007B600FCFDCFD4
:107F0000A601A0E0B1E02C9130E011968C91119780
:107F100090E0982F8827822B932B1296FA010C0160
:107F200087BEE89511244E5F5F4FF1E0A038BF0790
:107F300051F7F601A7BEE89507B600FCFDCF97BE46
:107F4000E89526C08437B1F42ED02DD0F82E2BD052
:107F50003CD0F601EF2C8F010F5F1F4F84911BD097
:107F6000EA94F801C1F70894C11CD11CFA94CF0C13
:107F7000D11C0EC0853739F428D08EE10CD085E9AC
:107F80000AD08FE07ACF813511F488E018D01DD067
:107F900080E101D065CF982F8091C00085FFFCCF94
:107FA0009093C60008958091C00087FFFCCF809118
:107FB000C00084FD01C0A8958091C6000895E0E648
:107FC000F0E098E1908380830895EDDF803219F02E
:107FD00088E0F5DFFFCF84E1DECF1F93182FE3DFCA
:107FE0001150E9F7F2DF1F91089580E0E8DFEE27F6
:047FF000FF270994CA
:027FFE00040479
:00000001FF
