:100000000C945E000C9486000C9486000C94860080
:100010000C9486000C9486000C9486000C94F903D2
:100020000C9486000C9486000C9486000C94860038
:100030000C9486000C9486000C9486000C94860028
:100040000C9455040C9486000C9486000C94860045
:100050000C9486000C9486000C9486000C94860008
:100060000C9486000C948600000000080002010039
:100070000003040700000000000000000200000070
:1000800000250028002B0000000000240027002A83
:100090000004040404040404040202020202020331
:1000A000030303030301020408102040800102043B
:1000B00008102001020408102000970511241FBE1B
:1000C000CFEFD8E0DEBFCDBF11E0A0E0B1E0EAE5C0
:1000D000FCE002C005900D92A232B107D9F722E0F0
:1000E000A2E2B1E001C01D92AE33B207E1F710E029
:1000F000CEE5D0E004C02197FE010E941606CD3562
:10010000D107C9F70E949F040C942B060C940000A1
:10011000EEEAF0E02491EAE9F0E08491882399F096
:1001200090E0880F991FFC01E957FF4FA591B4910A
:10013000FC01E358FF4F859194918FB7F894EC91AF
:10014000E22BEC938FBF08959091000189130DC0AD
:10015000ECE7F0E0E4919FEF90930001E13009F4C7
:1001600031C068F1E23009F433C090E0FC01E85995
:10017000FF4F2491FC01EB55FF4F3491FC01EF56EA
:10018000FF4FE491EE23D1F0222351F0233009F404
:100190003AC078F5213009F43CC0223009F43DC062
:1001A000F0E0EE0FFF1FE358FF4FA591B4918FB71A
:1001B000F894EC9130953E233C938FBF08951092B4
:1001C0006E00D3CF90916F009D7F90936F00CDCF45
:1001D000909170009D7F9093700091E09093B0009B
:1001E0009091B100987F94609093B1001092B30009
:1001F000BCCF2730A9F02830C9F0243089F680918F
:1002000080008F7D03C0809180008F778093800075
:10021000C7CF84B58F7784BDC3CF84B58F7DFBCF27
:100220008091B0008F778093B000BACF8091B000FA
:100230008F7DF9CF3FB7F8948091310190913201D1
:10024000A0913301B091340126B5A89B05C02F3F82
:1002500019F00196A11DB11D3FBFBA2FA92F982FEC
:100260008827BC01CD01620F711D811D911D42E0E7
:10027000660F771F881F991F4A95D1F708952FB7EA
:10028000F89460912D0170912E0180912F01909131
:1002900030012FBF08952F923F924F925F926F923D
:1002A0007F928F929F92AF92BF92CF92DF92EF9206
:1002B000FF920F931F93CF93DF93CDB7DEB72997AC
:1002C0000FB6F894DEBF0FBECDBF21E131E03A8317
:1002D000298381E091E098878F83E981FA81619198
:1002E0007191FA83E98388EE93E00E94A6058B0161
:1002F0002B01770F66087708EF81F8852190319000
:10030000F887EF8380910001893089F4ECE7F0E011
:10031000F491F987F7FD9DC10E948800F985FF23BC
:1003200009F43AC02985223009F0C1C035C08F3F99
:1003300009F08FC129E020930001ECE7F0E0F4918F
:10034000F987FF3F09F485C1F13009F490C048F006
:10035000F23009F4E5C0998597FD7BC10E948800C1
:10036000E1CF14BC15BC84B5826084BD85B58160C5
:1003700085BDEAE9F0E08491E82FF0E0EE0FFF1F81
:10038000E358FF4F85919491EEEAF0E084918093D9
:1003900023010E94880019864101B12CA12C60E044
:1003A00072E18AE790E0A50191010E94DC052B83B0
:1003B0003C834D835E8369017A0131E0C31AD10821
:1003C000E108F1088FEFC816D104E104F10409F047
:1003D0000CF417C160E472E48FE090E0A501910194
:1003E0000E94DC0569017A0191E0C91AD108E1088F
:1003F000F108E985E23009F0B8C082E0FFEFCF16DE
:10040000D104E104F10409F00CF4ECC160E970EDF1
:1004100083E090E0A50191010E94DC0569017A0169
:1004200081E0C81AD108E108F10883E09FEFC916FE
:10043000D104E104F10409F00CF4D4C168E478EECD
:1004400081E090E0A50191010E94DC0569017A013B
:1004500081E0C81AD108E108F1089FEFC916D1045C
:10046000E104F10411F00CF0A4C084E0BBC11092CF
:1004700080001092810080918100886080938100CB
:1004800080918100816080938100EAE9F0E08491AD
:10049000E82FF0E0EE0FFF1FE358FF4F8591949196
:1004A000EEEAF0E08491809322010E948800B12C52
:1004B000A12C60E072E18AE790E0A50191010E9421
:1004C000DC0569017A0181E0C81AD108E108F10868
:1004D000C114D10491E0E906F1040CF0DDC091E013
:1004E000F985F13009F095C080918100887F892BD2
:1004F000809381002FEF3FEFA90141145104610463
:10050000710409F4DAC09101220F331FD8010E944F
:10051000FB0528EE33E040E050E00E94BA0582C0BF
:100520001092B0001092B1008091B0008260809370
:10053000B0008091B10081608093B100EAE9F0E001
:100540008491E82FF0E0EE0FFF1FE358FF4F8591F5
:1005500094919093360180933501EEEAF0E0849116
:10056000809337010E94880017CFEFEFCE16D10499
:10057000E104F10409F00CF48DC068E478EE81E048
:1005800090E0A50191010E94DC0569017A01F1E08A
:10059000CF1AD108E108F1082985222309F4EEC019
:1005A0002FEFC216D104E104F10409F00CF45DCF81
:1005B000EEC064E274EF80E090E0A50194010E9437
:1005C000DC0569017A0181E0C81AD108E108F10867
:1005D00085E09FEFC916D104E104F10409F008F4A5
:1005E00001C162E17AE780E090E0A50194010E94F8
:1005F000DC0569017A01F1E0CF1AD108E108F108C0
:10060000D8C081E029852111EDC095B5987F892B4F
:1006100085BD2FEF3FEFA90141145104610471041E
:1006200009F071CF8985813009F447C0823009F41F
:1006300056C081110EC0C7BC2093280130932901F8
:1006400040932A0150932B0180916E008260809329
:100650006E000E941A016B017C0141145104610477
:10066000710409F44CC00E941A016C197D098E09AD
:100670009F09683E73408105910578F391E0491A1E
:10068000510861087108E8EECE0EE3E0DE1EE11CC1
:10069000F11CE3CF82E0B6CF68E478EE81E090E031
:1006A000A50191010E94DC0569017A01E1E0CE1A01
:1006B000D108E108F10893E013CFD0928900C092ED
:1006C0008800209324013093250140932601509304
:1006D000270180916F00826080936F00BACFC09233
:1006E000B300209338013093390140933A0150937D
:1006F0003B0180917000826080937000AACF89E0F6
:100700000E94A40021E231E089819A8128173907EB
:1007100009F0E3CD29960FB6F894DEBF0FBECDBF2A
:10072000DF91CF911F910F91FF90EF90DF90CF90CD
:10073000BF90AF909F908F907F906F905F904F9001
:100740003F902F90089584E03FEFC316D104E10459
:10075000F10409F008F459CFCB80DC80ED80FE80F5
:100760008AE0F594E794D794C7948A95D1F721E06D
:10077000C21AD108E108F10885E047CF83E0EFEF26
:10078000CE16D104E104F10409F00CF43ECF62E18D
:100790007AE780E090E0A50194010E94DC05690100
:1007A0007A01E1E0CE1AD108E108F108F985FF23CA
:1007B00051F286E0FFEFCF16D104E104F10491F08D
:1007C00088F0CB80DC80ED80FE809AE0F594E794A1
:1007D000D794C7949A95D1F7E1E0CE1AD108E108F1
:1007E000F10887E09091B100987F892B8093B10048
:1007F00010CF1F920F920FB60F9211242F933F9399
:100800004F935F936F937F938F939F93AF93BF9318
:10081000EF93FF938091380190913901A0913A01B3
:10082000B0913B01892B8A2B8B2BD1F19091370111
:10083000E0913501F0913601808189278083809194
:10084000380190913901A0913A01B0913B011816FD
:1008500019061A061B069CF4809138019091390103
:10086000A0913A01B0913B010197A109B109809390
:10087000380190933901A0933A01B0933B01FF9165
:10088000EF91BF91AF919F918F917F916F915F9108
:100890004F913F912F910F900FBE0F901F90189581
:1008A000809100010E94A400EACF1F920F920FB620
:1008B0000F9211242F933F938F939F93AF93BF93E6
:1008C00080912D0190912E01A0912F01B0913001C6
:1008D00030912C0123E0230F2D3758F50196A11DEF
:1008E000B11D20932C0180932D0190932E01A09394
:1008F0002F01B09330018091310190913201A0918C
:100900003301B09134010196A11DB11D80933101D5
:1009100090933201A0933301B0933401BF91AF9112
:100920009F918F913F912F910F900FBE0F901F902D
:10093000189526E8230F0296A11DB11DD2CF7894F9
:1009400084B5826084BD84B5816084BD85B58260D4
:1009500085BD85B5816085BD80916E008160809385
:100960006E001092810080918100826080938100EE
:1009700080918100816080938100809180008160FE
:10098000809380008091B10084608093B100809159
:10099000B00081608093B00080917A008460809381
:1009A0007A0080917A00826080937A0080917A0048
:1009B000816080937A0080917A00806880937A00C9
:1009C0001092C1000E9488000E943F01EEE3F1E016
:1009D00020813181232B09F45FC0709622E0EE3331
:1009E000F207B0F3EE24E394F12C00E010E0CEE344
:1009F000D1E088819981892B99F10E943F014B01B7
:100A00005C018C819D81AE81BF81B501A401481B31
:100A1000590B6A0B7B0B88859985AA85BB8548177E
:100A200059076A077B07E0F0E881F9818A819B8199
:100A30000995882329F08C859D85892B09F05BC059
:100A4000198218821B821A821C821D821E821F82BA
:100A5000188619861A861B861D861C861F861E868A
:100A6000609682E0CE33D80720F20E943F01CEE3A9
:100A7000D1E088819981892B09F044C0609622E0F9
:100A8000CE33D207B0F30E943F010115110509F4DE
:100A9000AECF0E940000ABCF20913C0130913D01D0
:100AA0002F5F3F4F30933D0120933C01232B31F4C6
:100AB00021E030E030933D0120933C0120913C0146
:100AC00030913D01378726872BE431E03183208345
:100AD00013821282648375838683978388EB9BE0FD
:100AE000A0E0B0E080879187A287B38781E090E0A3
:100AF0009587848777CFFD86EC868C829D82AE8237
:100B0000BF82AECF0E943F018C809D80AE80BF80AF
:100B1000681979098A099B0988849984AA84BB8405
:100B2000681579058A059B0508F4A8CFACCF10920B
:100B30003D0110923C01EEE3F1E080E091E0DF0145
:100B40009C011D9221503040E1F7089597FB072E3C
:100B500016F4009407D077FD09D00E94020607FC26
:100B600005D03EF4909581959F4F089570956195BD
:100B70007F4F0895A1E21A2EAA1BBB1BFD010DC0D9
:100B8000AA1FBB1FEE1FFF1FA217B307E407F5073D
:100B900020F0A21BB30BE40BF50B661F771F881F19
:100BA000991F1A9469F760957095809590959B01AF
:100BB000AC01BD01CF010895052E97FB1EF40094F2
:100BC0000E94F30557FD07D00E94BA0507FC03D029
:100BD0004EF40C94F30550954095309521953F4F78
:100BE0004F4F5F4F089590958095709561957F4F19
:100BF0008F4F9F4F08950E941C06B7FF0895821BD8
:100C0000930B0895AA1BBB1B51E107C0AA1FBB1F72
:100C1000A617B70710F0A61BB70B881F991F5A9588
:100C2000A9F780959095BC01CD010895EE0FFF1FA7
:100C30000590F491E02D0994A29FB001B39FC001EB
:100C4000A39F700D811D1124911DB29F700D811DF8
:0A0C50001124911D0895F894FFCFC0
:100C5A00FF0601C400C400DC00C4000000F700065F
:100C6A000102000200020002000400040004000461
:020C7A00000078
:00000001FF
