:100000000C9462000C948A000C948A000C948A0070
:100010000C948A000C948A000C948A000C948A0038
:100020000C948A000C948A000C948A000C948A0028
:100030000C948A000C948A000C948A000C948A0018
:100040000C942B020C948A000C948A000C948A0065
:100050000C948A000C948A000C948A000C948A00F8
:100060000C948A000C948A000000000024002700F1
:100070002A0000000000250028002B0000000000DE
:1000800023002600290004040404040404040202DA
:100090000202020203030303030301020408102007
:1000A0004080010204081020010204081020000012
:1000B0000008000201000003040700000000000027
:1000C00000008A0311241FBECFEFD8E0DEBFCDBFF2
:1000D00011E0A0E0B1E0E8E0F8E002C005900D9288
:1000E000A033B107D9F721E0A0E3B1E001C01D9230
:1000F000A139B207E1F710E0C2E6D0E004C02197D1
:10010000FE010E94FC03C136D107C9F70E947502A7
:100110000C9402040C940000833081F028F48130A8
:1001200099F08230A9F008958730A9F08830C9F09D
:100130008430B1F4809180008F7D03C08091800075
:100140008F7780938000089584B58F7784BD08955C
:1001500084B58F7DFBCF8091B0008F778093B00006
:1001600008958091B0008F7DF9CF1F93CF93DF93D7
:10017000282F30E0F901E255FF4F8491F901E6564E
:10018000FF4FD491F901EA57FF4FC491CC23A9F056
:10019000162F81110E948C00EC2FF0E0EE0FFF1F54
:1001A000EE58FF4FA591B4918FB7F894EC911111CF
:1001B00008C0D095DE23DC938FBFDF91CF911F91D4
:1001C0000895DE2BF8CFCF93DF9390E0FC01E65645
:1001D000FF4F24918A579F4FFC0184918823D1F0CF
:1001E00090E0880F991FFC01E859FF4FA591B49149
:1001F000FC01EE58FF4FC591D491623071F49FB766
:10020000F8943C91822F809583238C93E8812E2B48
:1002100028839FBFDF91CF9108958FB7F894EC9119
:100220002E2B2C938FBFF6CF3FB7F89480913501DA
:1002300090913601A0913701B091380126B5A89B65
:1002400005C02F3F19F00196A11DB11D3FBFBA2F68
:10025000A92F982F8827BC01CD01620F711D811D28
:10026000911D42E0660F771F881F991F4A95D1F7AD
:1002700008958F929F92AF92BF92CF92DF92EF92AA
:10028000FF920E9414014B015C0184EFC82EDD2413
:10029000D394E12CF12C0E941401681979098A0980
:1002A0009B09683E734081059105A8F321E0C21ABD
:1002B000D108E108F10888EE880E83E0981EA11CA1
:1002C000B11CC114D104E104F10429F7FF90EF90AF
:1002D000DF90CF90BF90AF909F908F900895CF9276
:1002E000DF92EF92FF920F931F93CF93DF9300D093
:1002F000CDB7DEB769834A83880F991F00918F01BC
:1003000010919001000F111FE9E3F1E09F012953C3
:1003100031402017310714F41192F8CF2981FC01E4
:10032000E75CFE4F21838A81808360E080918D01AC
:100330000E94B5001016110604F501501109F801CC
:10034000E75CFE4FE080D0908B01C090890188E08F
:10035000F82E6E2D661F6627661F8C2D0E94B50035
:10036000EE0C61E08D2D0E94B50060E08D2D0E94A5
:10037000B500FA94F110EDCFDDCF61E080918D01F1
:100380000F900F90DF91CF911F910F91FF90EF9001
:10039000DF90CF900C94B500EF92FF920F931F93D4
:1003A000CF937C018C0183E0000F111F8A95E1F748
:1003B000075B1E4FC1E0F80111928F0140E06C2FE6
:1003C000C7010E946F01CF5FC930A9F7CF911F917C
:1003D0000F91FF90EF9008950F931F93CF93DF93AA
:1003E0008C01D0E0C0E080918F0190919001029744
:1003F0008CF0C830D10574F4F801EC0FFD1F40817A
:10040000FE01E75CFE4F408F6C2F6F5F81E090E054
:100410000E946F0180918F0190919001181619062A
:100420008CF4C830D10574F4F801EC0FFD1F408541
:10043000FE01E75CFE4F408B6C2F6F5F90E080E029
:100440000E946F012196C031D10569F6DF91CF91ED
:100450001F910F9108951F920F920FB60F921124C2
:100460002F933F938F939F93AF93BF9380913101CD
:1004700090913201A0913301B0913401309130015B
:1004800023E0230F2D3758F50196A11DB11D2093B0
:1004900030018093310190933201A0933301B093E6
:1004A00034018091350190913601A0913701B091CE
:1004B00038010196A11DB11D80933501909336013D
:1004C000A0933701B0933801BF91AF919F918F9165
:1004D0003F912F910F900FBE0F901F90189526E817
:1004E000230F0296A11DB11DD2CFCF93DF93CDB7BD
:1004F000DEB7E0970FB6F894DEBF0FBECDBF78949D
:1005000084B5826084BD84B5816084BD85B5826018
:1005100085BD85B5816085BD80916E0081608093C9
:100520006E00109281008091810082608093810032
:100530008091810081608093810080918000816042
:10054000809380008091B10084608093B10080919D
:10055000B00081608093B00080917A0084608093C5
:100560007A0080917A00826080937A0080917A008C
:10057000816080937A0080917A00806880937A000D
:100580001092C10062E084E00E94E30061E08BE031
:100590000E94E30061E08AE00E94E30061E08DE0F8
:1005A0000E94E30080918F01909190011816190626
:1005B00034F441E06CE090E080E00E946F018091B3
:1005C0008F0190919001029734F041E06CE081E05E
:1005D00090E00E946F0180918F0190919001181618
:1005E000190634F448E06AE090E080E00E946F0170
:1005F00080918F0190919001029734F048E06AE079
:1006000081E090E00E946F0180918F0190919001B4
:100610001816190624F490E080E00E94CC01809125
:100620008F0190919001029724F081E090E00E9468
:10063000CC0102EB10E09EE9E92E90E0F92E2AE8C9
:10064000C22E20E0D22E30E0A32E30E0B32E80E187
:10065000E0E0F1E0DE01919601900D928A95E1F7DC
:1006600080E1E0E1F1E0DE01519601900D928A9582
:10067000E1F780E1E0E2F1E0DE01119601900D92F8
:100680008A95E1F7F8018491F7019490F60184903E
:10069000882009F181110E948C00E82DF0E0EE0F16
:1006A000FF1FE458FF4FA591B4918C91982299F0C7
:1006B00060E08BE00E94B50060E08AE00E94B50037
:1006C00060E08DE00E94B500A114B10409F4BFCF31
:1006D0000E940000BCCF61E08BE00E94B50061E0A9
:1006E0008AE00E94B50061E08DE00E94B500CE0175
:1006F00081960E94EC010E943901CE0141960E9430
:10070000EC010E943901CE0101960E94EC010E9489
:100710003901DACFCF93DF93CBE0D0E0D0938A01D9
:10072000C09389018DE090E090938C0180938B01C0
:100730008AE090E090938E0180938D0182E090E0BA
:100740009093900180938F0161E08BE00E94E30021
:1007500061E080918B010E94E30061E080918D0156
:100760000E94E30061E080918D010E94B500D0936A
:100770008A01C0938901E9E4F1E0119281E0E9384E
:10078000F807D9F7D0E0C0E080918F0190919001F7
:10079000C817D90774F540E06FE0CE010E946F01E1
:1007A00080918F0190919001C817D9072CF447E0F0
:1007B0006BE0CE010E946F0140E069E0CE010E9433
:1007C0006F0180918F0190919001C817D9071CF497
:1007D000CE010E94CC0180918F0190919001C817A9
:1007E000D9072CF440E06CE0CE010E946F01219605
:1007F000CBCFDF91CF910895EE0FFF1F0590F491BD
:08080000E02D0994F894FFCFEC
:100808003C42A581A599423C006699818142241801
:100818003C42A581BD81423C0000665A4224180032
:100828003C42A58199A5423C0000243C24180000C4
:00000001FF
