:020000040000FA
:100000000C945D000C9485000C9485000C94850084
:100010000C9485000C9485000C9485000C9485004C
:100020000C9485000C9485000C9485000C9485003C
:100030000C9485000C9485000C9485000C9485002C
:100040000C947D010C9485000C9485000C94850023
:100050000C9485000C9485000C9485000C9485000C
:100060000C9485000C94850000000008000201003B
:100070000003040700000000000000000000000072
:10008000250028002B0000000000240027002A0083
:10009000040404040404040402020202020203032E
:1000A0000303030301020408102040800102040836
:1000B00010200102040810203A0311241FBECFEFC4
:1000C000D8E0DEBFCDBF11E0A0E0B1E0E6EAF7E0A6
:1000D00002C005900D92A035B107D9F721E0A0E547
:1000E000B1E001C01D92A13BB207E1F710E0CDE500
:1000F000D0E004C02197FE010E94CB03CC35D1078C
:10010000C9F70E94E6010C94D1030C94000090E022
:10011000FC01E859FF4F2491FC01EC55FF4F34914D
:10012000FC01E057FF4FE491EE23C9F0222339F0A0
:10013000233001F1A8F4213019F1223029F1F0E047
:10014000EE0FFF1FE458FF4FA591B4918FB7F894BD
:10015000EC91611126C030953E233C938FBF0895EA
:100160002730A9F02830C9F0243049F78091800069
:100170008F7D03C0809180008F7780938000DFCFD8
:1001800084B58F7784BDDBCF84B58F7DFBCF809125
:10019000B0008F778093B000D2CF8091B0008F7D78
:1001A000F9CF3E2BDACF3FB7F8948091550190916B
:1001B0005601A0915701B091580126B5A89B05C0E2
:1001C0002F3F19F00196A11DB11D3FBFBA2FA92FD6
:1001D000982F8827BC01CD01620F711D811D911DD3
:1001E00042E0660F771F881F991F4A95D1F708953F
:1001F000CF92DF92EF92FF920F931F93CF93DF93F3
:1002000000D0CDB7DEB769834A83880F991F00916C
:10021000AF011091B001000F111FE9E5F1E09F015E
:10022000295531402017310714F41192F8CF298154
:10023000FC01E75AFE4F21838A81808360E0809130
:10024000AD010E9487001016110604F50150110936
:10025000F801E75AFE4FE080D090AB01C090A901B1
:1002600088E0F82E6E2D661F6627661F8C2D0E9473
:100270008700EE0C61E08D2D0E94870060E08D2DDF
:100280000E948700FA94F110EDCFDDCF61E08091FC
:10029000AD010F900F90DF91CF911F910F91FF90C3
:1002A000EF90DF90CF900C948700EF92FF921F9316
:1002B000CF93DF932091AF013091B0018217930764
:1002C000B4F4EC0123E0880F991F2A95E1F79C0113
:1002D00027593E4F790111E0F70111927F0140E06B
:1002E000612FCE010E94F8001F5F1930A9F7DF913E
:1002F000CF911F91FF90EF9008951F920F920FB62C
:100300000F9211242F933F938F939F93AF93BF939B
:100310008091510190915201A0915301B0915401EB
:100320003091500123E0230F2D3758F50196A11D80
:10033000B11D209350018093510190935201A093DD
:100340005301B09354018091550190915601A091B1
:100350005701B09158010196A11DB11D809355011F
:1003600090935601A0935701B0935801BF91AF915C
:100370009F918F913F912F910F900FBE0F901F90E3
:10038000189526E8230F0296A11DB11DD2CF90E04B
:10039000FC01EC55FF4F249180579F4FFC01849145
:1003A000882399F090E0880F991FFC01EA57FF4FCE
:1003B000A591B491FC01E458FF4F859194918FB7BA
:1003C000F894EC91E22BEC938FBF0895789484B568
:1003D000826084BD84B5816084BD85B5826085BD41
:1003E00085B5816085BD80916E00816080936E00CF
:1003F00010928100809181008260809381008091C1
:100400008100816080938100809180008160809371
:1004100080008091B10084608093B1008091B00031
:1004200081608093B00080917A00846080937A002C
:1004300080917A00826080937A0080917A00816056
:1004400080937A0080917A00806880937A0010927D
:10045000C1008091AF019091B0011816190634F4D3
:1004600041E06CE090E080E00E94F8008091AF01F4
:100470009091B001029734F041E06CE081E090E0AF
:100480000E94F8008091AF019091B001039734F081
:1004900041E06CE082E090E00E94F8008091AF01C2
:1004A0009091B0011816190634F44FE06AE090E01C
:1004B00080E00E94F8008091AF019091B001029716
:1004C00034F04FE06AE081E090E00E94F800809113
:1004D000AF019091B001039734F04FE06AE082E001
:1004E00090E00E94F80090E080E00E94550181E0D9
:1004F00090E00E94550182E090E00E9455010AE0E0
:1005000010E044E6842E912C50E0A52E50E0B52E4C
:10051000D0E0C0E0CE01B8010E94A3037C0133E02B
:10052000EE0CFF1C3A95E1F7D12CC12C8091AF0164
:100530009091B0011816190684F4F601EE0DFF1D16
:10054000E050FF4F4081F601E75AFE4F408B61E0DB
:100550006C0D90E080E00E94F8002FEFC21AD20AE2
:1005600088E0C816D10411F7CE01B8010E94A30398
:10057000CB01B8010E94A3037C0123E0EE0CFF1C19
:100580002A95E1F7D12CC12C8091AF019091B00157
:10059000029784F0F601EE0DFF1DE050FF4F408101
:1005A000F601E75AFE4F408F61E06C0D81E090E06C
:1005B0000E94F8002FEFC21AD20A88E0C816D104B0
:1005C00019F7CE01B4010E94A3037B0193E0EE0C66
:1005D000FF1C9A95E1F7D12CC12C8091AF0190912D
:1005E000B001039784F0F601EE0DFF1DE050FF4FC0
:1005F0004081F601E75AFE4F40A361E06C0D82E0B6
:1006000090E00E94F8002FEFC21AD20A88E0C816C4
:10061000D10419F70E94D3002B013C0184E6C82EB7
:10062000D12CE12CF12C0E94D300641975098609A4
:100630009709683E734081059105A8F321E0C21A2D
:10064000D108E108F10888EE480E83E0581E611CCD
:10065000711CC114D104E104F10429F72196C138B9
:10066000D10509F057CFA114B10409F451CF0E946C
:1006700000004ECFCF93DF93CBE0D0E0D093AA0120
:10068000C093A9018DE090E09093AC018093AB0101
:100690008AE090E09093AE018093AD0183E090E01A
:1006A0009093B0018093AF018BE00E94C7018091CD
:1006B000AB010E94C7018091AD010E94C70161E0BA
:1006C0008091AD010E948700D093AA01C093A90137
:1006D000E9E6F1E089EA91E011928E179F07E1F7D0
:1006E000D0E0C0E08091AF019091B001C817D90768
:1006F0003CF540E06FE0CE010E94F8008091AF0130
:100700009091B001C817D9072CF447E06BE0CE01F7
:100710000E94F80040E069E0CE010E94F800CE019E
:100720000E9455018091AF019091B001C817D9077F
:100730002CF440E06CE0CE010E94F8002196D2CF6C
:10074000DF91CF91089597FB072E16F4009407D000
:1007500077FD09D00E94B70307FC05D03EF49095C1
:1007600081959F4F0895709561957F4F0895AA1BBD
:10077000BB1B51E107C0AA1FBB1FA617B70710F08C
:10078000A61BB70B881F991F5A95A9F780959095BE
:10079000BC01CD010895EE0FFF1F0590F491E02DEF
:1007A0000994F894FFCF3C4242424242423C1C3CF6
:1007B0006CCC0C0C0C0C3E7EC6860C183F7F7EC6A3
:1007C00086181886C67E183060CCFFFF0C0C7E4061
:1007D00040407E02027E1E2040407C42423CFFFFA1
:1007E000060C7E3060C07E42427E7E42427E7E4269
:0607F000427E0202027EBF
:107E0000112484B714BE81FFF0D085E080938100F7
:107E100082E08093C00088E18093C10086E0809377
:107E2000C20080E18093C4008EE0C9D0259A86E02C
:107E300020E33CEF91E0309385002093840096BBD3
:107E4000B09BFECF1D9AA8958150A9F7CC24DD24C4
:107E500088248394B5E0AB2EA1E19A2EF3E0BF2EE7
:107E6000A2D0813461F49FD0082FAFD0023811F036
:107E7000013811F484E001C083E08DD089C08234E0
:107E800011F484E103C0853419F485E0A6D080C0E4
:107E9000853579F488D0E82EFF2485D0082F10E0AE
:107EA000102F00270E291F29000F111F8ED06801E7
:107EB0006FC0863521F484E090D080E0DECF843638
:107EC00009F040C070D06FD0082F6DD080E0C81688
:107ED00080E7D80618F4F601B7BEE895C0E0D1E017
:107EE00062D089930C17E1F7F0E0CF16F0E7DF06D8
:107EF00018F0F601B7BEE89568D007B600FCFDCFD4
:107F0000A601A0E0B1E02C9130E011968C91119780
:107F100090E0982F8827822B932B1296FA010C0160
:107F200087BEE89511244E5F5F4FF1E0A038BF0790
:107F300051F7F601A7BEE89507B600FCFDCF97BE46
:107F4000E89526C08437B1F42ED02DD0F82E2BD052
:107F50003CD0F601EF2C8F010F5F1F4F84911BD097
:107F6000EA94F801C1F70894C11CD11CFA94CF0C13
:107F7000D11C0EC0853739F428D08EE10CD085E9AC
:107F80000AD08FE07ACF813511F488E018D01DD067
:107F900080E101D065CF982F8091C00085FFFCCF94
:107FA0009093C60008958091C00087FFFCCF809118
:107FB000C00084FD01C0A8958091C6000895E0E648
:107FC000F0E098E1908380830895EDDF803219F02E
:107FD00088E0F5DFFFCF84E1DECF1F93182FE3DFCA
:107FE0001150E9F7F2DF1F91089580E0E8DFEE27F6
:047FF000FF270994CA
:027FFE00040479
:00000001FF
